S014000066696E616C50726F6A6563742E737265632F
S1130000B8250020190100001501000015010000A9
S113001000000000000000000000000000000000DC
S113002000000000000000000000000015010000B6
S11300300000000000000000F10D0000350E00007B
S11300401501000015010000150100001501000054
S11300501501000015010000150100001501000044
S11300601501000015010000150100001501000034
S11300701501000015010000150100001501000024
S11300801501000015010000150100001501000014
S11300901501000000000000000000001501000030
S11300A015010000150100001501000015010000F4
S11300B00000000010B5064C2378002B07D1054B37
S11300C0002B02D0044800E000BF0123237010BDC0
S11300D03C040020000000008C2A0000084B10B5EE
S11300E0002B03D00749084800E000BF0748036815
S11300F0002B00D110BD064B002BFBD09847F9E72D
S113010000000000400400208C2A00008C2A00001B
S113011000000000FEE70000F8B52A4A2A4B9A4284
S113012011D01A00294B9A420DD2294A03339B1A43
S11301309B0801339B000022234822498C58845099
S113014004329A42FAD1234A234B9A420AD2D34325
S113015021495B1803218B4304339B18002102C2FD
S11301609342FCD11D4AFF211D4B8B439360FD3903
S113017090235B001B4AD1501B4AD3780325AB4321
S113018002242343D370D3780C27BB43082633437C
S1130190D370164B987B30229043202210439873DF
S11301A0997BB943314399739A7BAA4322439A7347
S11301B00F4A536880210B4353600E4B98470E4BF4
S11301C09847FEE78C2A0000000000203C04002031
S11301D0040000203C040020B405002000ED00E0F1
S11301E00000000000700041005000410048004140
S11301F000400041192800005D040000014A024B40
S11302001A60704740420F0000000020C001054BF7
S11302109C4660444318403300221A7001238B40EB
S11302208360704700440041C001064B9C46604413
S11302304318403303221A7001238B404360436206
S11302407047C04600440041C001054B9C466044D1
S1130250006A01238B401840431E9841C0B2704786
S1130260004400410C4B00225B215A540B49996015
S1130270D9610B49086A80231B0103430B620949B6
S1130280094B5980094B502119831A82084A1A8054
S113029020229A737047C0460044004100040008BD
S11302A0000400401B400000000C0040002C0042F1
S11302B022200000F0B5DE4657464E464546E0B5DE
S11302C087B003239B46002301933F4B9946402369
S11302D09A4605933D4D20245B4604932BE0F01B86
S11302E03B4B984698473B4B9B463B4A3B4BD84736
S11302F000223B4BD847029003910198C04702006B
S11303000B0002980399374FB847374B9847019031
S1130310364A921B964209D23549AB7B2342FCD024
S11303200A364B46D961AC73B242F6D8049B013B02
S11303300493002B3DD04B46059A5A61AB7B234274
S1130340FCD02B4B4A46D361AC734B4652469A6160
S1130350AB7B2342FCD0264B4A46D361AC734B465D
S113036052465A611427234E07210020B047002823
S11303700AD1AB7B2342FCD00A371D4B4A46D361DA
S1130380AC731D4B9F42EFD13E001A4B9B46072195
S11303900020D8470028A2D0AB7B2342FCD00A36E9
S11303A0134B4A46D361AC73144BFB189E42EED9EF
S11303B095E703210198124B984707B03CBC90463F
S11303C09946A246AB46F0BD00440041002C0042D1
S11303D0F12400005D1900009CC420B07268A13FA4
S11303E00000E03F3D1300000113000007B20100CC
S11303F00004000849020000CA5D0000C05D00005E
S1130400E911000010B5124B020A9A71D8716328E1
S11304100ED99023FF33984212D90D4BFF229A71C3
S1130420DA710C490A78C88800210B4CA04710BD2A
S1130430084B1A785888064B0021074CA047F6E76A
S1130440044B1A789888024B0021034CA047EEE72E
S11304505804002004000020C50A000070B5114BA8
S11304609847114A116A114B0B401362104B98477D
S1130470104B9847104B187A0F21104B98470621C0
S113048000200F4B9847072100200E4B98470E4B36
S113049098470E4E0E4D0F4CB047A84720000E4B08
S11304A09847F9E7FD01000000080040FFFCFFFF4A
S11304B0CD1000003110000058040020D90A0000BB
S11304C00D0200002902000065020000B5020000D0
S11304D005040000B8290000E10B000010B5054C2C
S11304E02078054B9847C020044B98472078044B4C
S11304F0984710BD8E0500206D11000045110000C5
S1130500B111000070B50600084D2878084B9847D3
S11305100320084CA0473000A0470020A047040057
S11305202878054B9847200070BDC0468E050020F2
S11305306D11000045110000B1110000F8B507006D
S11305400E00074D2878074B98470220064CA04719
S11305503800A0473000A0472878044B9847F8BDDE
S11305608E0500206D11000045110000B11100003E
S1130570F8B507000E0015000D4B18780D4B984781
S113058002200D4CA0473800A047002D0AD03400AB
S1130590013DEDB201357519074E2078B04701349D
S11305A0AC42FAD1024B1878044B9847F8BDC046C8
S11305B08E0500206D11000045110000B1110000EE
S11305C0F0B583B007000E000192094D2878094B5D
S11305D098470520084CA0473800A0473000A047A2
S11305E00198A0472878054B984703B0F0BDC04652
S11305F08E0500206D11000045110000B1110000AE
S113060010B504000200E0210F20064B98470F208C
S1130610054B9847E0231840001B431E9841C0B285
S113062010BDC046C10500000505000070B51028C6
S113063045D88000274B1B589F468726FF250F214E
S113064032E00726BE2509212EE08726FF25072153
S11306502AE08726FA25072126E08726FF2503219D
S113066022E00726BE2503211EE00726AD2503212F
S11306701AE08726FA25032116E08626F0250321B1
S113068012E08726FA2501210EE08526F125412175
S11306900AE08626F025002106E08226D0250021E6
S11306A002E08726FF253F212A200B4CA047290082
S11306B02920A04731002820A047002070BD012038
S11306C0FCE78726FF251F21EEE78526F1250F216C
S11306D0EAE7C046C02900003D05000000B583B02C
S11306E0012912D001ABD108197052015A700022AD
S11306F0DA709A70042201A9084B9847FA235B0028
S1130700013B002BFCD103B000BD01ABDA70120A2F
S11307109A7008225A7000221A70EBE771050000E3
S113072030B583B093B2012913D001A9CA701B0A52
S11307308B70120C53014B70D2080A70042201A969
S11307400D4B9847FA235B00013B002BFCD103B00F
S113075030BD01A9CA701B0A8B70120CD4B20323DA
S1130760234008252B43E4001F25AC4323434B704F
S113077052090A70E2E7C0467105000070B5002214
S1130780012120201C4CA047002201212420A04745
S1130790002201210020A047002200210420A047BC
S11307A0002201210820A047002200211020A04798
S11307B0002201211420A047002200211820A04774
S11307C030240E4D00212000A84720001030C0B274
S11307D00021A84720002030C0B20021A8470134DE
S11307E0E4B23E2CEED100216020044CA04700214D
S11307F07020A04770BDC046210700003D050000E1
S113080070B50500214B9847214B013B002BFCD1CF
S11308108020204B9847041E06D0FA235B00013B3E
S1130820002BFCD1200070BDFA235B00013B002BA0
S1130830FCD12800184B9847002804D0144B013BE6
S1130840002BFCD1EEE7124B013B002BFCD1134BE8
S1130850984703212B20124B9847042264216020DF
S1130860104CA047002260217020A0470020094BB3
S11308709847041E04D0064B013B002BFCD1D1E762
S1130880034B013B002BFCD1CCE7C046DD04000048
S1130890DC050000010600002D0600007D070000B5
S11308A03D050000C105000010B504000F4B1A7887
S11308B00530C0B20E490F4B98470F4B1B78012BE4
S11308C00DD00A4B1978201DC0B20C4B98470C4B25
S11308D01A880C4B197820000B4B984710BD034A1B
S11308E0137840210B431370EBE7C0468F050020BB
S11308F08405002071050000800500203D050000EE
S1130900820500208C050020DD06000010B50138AA
S1130910C0B208220821014B984710BDC105000050
S1130920F0B5CE46474680B583B0804601AB302251
S11309301A7010325A7010329A7000230370002417
S113094001AE0B4B99460827A55D2800C84707420E
S113095008D00134032CF7D1022003B00CBC90461C
S11309609946F0BD013543461D700020F5E7C046A9
S11309700505000070B506000C001500254B013B71
S1130980002BFCD18020244B9847002804D0214B15
S1130990013B002BFCD170BDFA235B00013B002B13
S11309A0FCD1052E08D8B6001C4B9B599F462A0043
S11309B0210000201A4B98470020174B9847002825
S11309C022D0144B013B002BFCD1E4E72A00210088
S11309D00420134B9847EFE72A0021000820104B0E
S11309E09847E9E72A00210010200D4B9847E3E7D8
S11309F02A00210014200A4B9847DDE72A00210031
S1130A001820074B9847D7E7024B013B002BFCD13A
S1130A10C1E7C046DC05000001060000042A00000E
S1130A202107000010B5074C2170074908800749C9
S1130A300A7000220648995C81540132082AFAD1CE
S1130A40002010BD8C050020820500208F050020A9
S1130A5084050020F0B583B00024164D6B46D81DE4
S1130A60A8470134A4B2022803D1322CF6D10430B1
S1130A7002E00620322C01D103B0F0BD6B46DC1D30
S1130A80D8790D4B984720780C4B984700246B4637
S1130A90DD1D0B4F08260134A4B22878B847304036
S1130AA003D0322CF7D10720E6E7322CE4D107201B
S1130AB0E2E7C04621090000A90800000D09000072
S1130AC00505000010B5024CA047024B984710BD25
S1130AD0250A0000550A000010B5044B18700800E0
S1130AE0034B9847431E9841C0B210BD8E050020A9
S1130AF00108000043684B609A688A609A685160F4
S1130B0099600861036801330360704703694268B0
S1130B10816891608268416851605A68904206D049
S1130B20002202611A68013A1A60186870478268E4
S1130B305A60F5E7024A1368591C1160187070472F
S1130B406404002010B53023092805D9064B1A790E
S1130B503723002A00D120331818C0B2034B98471A
S1130B600122014B5A7110BD64040020350B0000B2
S1130B7010B50E4B1A899A60824210D30023121AC0
S1130B800133DBB29042FAD908498A604A79002AD3
S1130B9001D1002B02D01800054B984710BD034B20
S1130BA05B79002BFAD00023F5E7C04664040020EB
S1130BB0450B00000A2808D0084901220B7E134285
S1130BC0FCD080B2054B18857047044901220B7E86
S1130BD01342FCD00D22014B1A85EDE700080042B8
S1130BE00FB4F0B5DE4657464E464546E0B587B0ED
S1130BF010AB80CB0593734B0C330293714B9A4625
S1130C00714B984653460C3303938CE07B78302B1E
S1130C1029D002370022934600241A00303A092AC8
S1130C200CD8A200A4186400303CE418E4B27A1C86
S1130C303B781700190030390929F2D9614A029921
S1130C40116000225F494A71632B00D17DE00FD807
S1130C50252B00D186E0582B11D0002B00D1A6E023
S1130C60584D0C353CE0BB78033701229346D3E75B
S1130C70732B72D01BD9752B1BD0782BF0D1514D0F
S1130C80583B594259412971059B1A1D05921B680D
S1130C90AB60802040014D4EB04780204000B047FB
S1130CA01020B047287A4A4B98470C3518E0642B3B
S1130CB0D6D1059A111D0591126842498A60642BA8
S1130CC03BD04448414DA847FA208000A8476420FF
S1130CD0A8470A20A8473B4D287A3D4B98470C3536
S1130CE000235246126813706B1C994653464A46B9
S1130CF01A602878002855D0002C0CD0AA1C631E3A
S1130D00DBB21100561E3678002E3CD001321C1E78
S1130D10F5D12C4B196028784D46C04701356B1E20
S1130D2018780028F9D13878002840D0252800D137
S1130D306CE70137244B9847F5E7002AC1DA5242A1
S1130D408A602D20244B9847BBE7059B1A1D05920A
S1130D501878214B9847039DC2E7059B1A1D0592FD
S1130D601D68BDE725201C4B9847164D0C35B7E789
S1130D701E000198A047731EDBB2002EF8D128781C
S1130D800028C9D1CFE70F4A1160023CE6B2002B1C
S1130D90C2D020245B46002B00D03024E3B2019360
S1130DA0094CE6E7661EF6B2002CF2D1BBE707B0A9
S1130DB03CBC90469946A246AB46F0BC08BC04B085
S1130DC01847C04664040020B50B0000710B0000F6
S1130DD0450B000010270000350B0000EFF31080D6
S1130DE072B6704780F3108870470000000000005E
S1130DF0EFF309800E4B1A6820381060F0C04446A7
S1130E004D4656465F46F0C008B572B600F0C6F8C7
S1130E1062B60CBC116808681030F0C8A046A94638
S1130E20B246BB4680F309882038F0C81847C0464C
S1130E303005002010B5074B98470400064B98472F
S1130E40002803D080225205044B1A602000044B72
S1130E50984710BDDD0D00008D0E000004ED00E08C
S1130E60E50D0000084B9B6A1B68002B06D0064B5F
S1130E709A6AD268D2685268DA6270470122524292
S1130E80014BDA62F9E7C0467C040020F8B5CE468F
S1130E90474680B53B4B1B6F002B64D1394B1E6B0F
S1130EA001361E63002E11D1374B9B6A1B68002B41
S1130EB001D072B6FEE7344A916A324B986B906265
S1130EC099639A6F01329A67304B98472E4BDB6ACD
S1130ED000249E4237D300242B4B99464C2294463F
S1130EE0634498464B469B6A1B68002B27D0264BCD
S1130EF09B6ADB68DF687B689E4231D33D1D280016
S1130F00234B9847BB6A002B03D038001830204B82
S1130F109847FB6A1B4AD26E934201D9194AD36699
S1130F209800C0188000404429001A4B9847154B7C
S1130F305B6BFA6ADB6A9A42D4D30124D2E70122BA
S1130F405242114BDA620F4B5B6BDA6A93009B18C7
S1130F509B000D4AD318DB6C012B09D9012407E04F
S1130F60094AD362EFE7074AD36F0133D3670024FA
S1130F70094B1B68002B00D0012420000CBC9046B8
S1130F809946F8BDFC0400207C040020650E000096
S1130F900D0B0000F50A00007C05002010B5214B64
S1130FA01B6F002B1AD100221F4B1A601D4BDB6EE6
S1130FB09A00D21892001D498A18D26C002A11D1C5
S1130FC0002B09D0013B9A00D21892008A18D26CE7
S1130FD0002A07D1002BF5D172B6FEE70122124B8D
S1130FE01A6010BD114A9900C81880001018046DC9
S1130FF064680465C91889000200543294420AD016
S11310009A00D218920009498A18126DD168054ACB
S11310105163D366E5E760680A0004498A181065DD
S1131020EEE7C046FC0400207C0500207C04002080
S11310301F4A136A04210B4313621E4B832252027C
S11310405A601D4A5A801D4B03394A22995406316D
S1131050013299542E315A5C0F20824302200243FC
S11310605A54585C0F220240202002435A54144B15
S11310701A6833398A431A60124A1A601A00D3690B
S1131080002BFCD1104A0E4B9A811A00D369002B15
S1131090FCD1C02292020A4B5A601A00D369002B79
S11310A0FCD1074A136802210B4313607047C04602
S11310B000040040000C00401440000000440041C3
S11310C0000800420400314015FBFFFF154A40218F
S11310D01160154B19604031116019608021C902FB
S11310E011601960114A136A08210B431362104AF4
S11310F0104B5A801A005378DB09FCD10E4A0F4B6F
S1131100116819608021890259600221197350689D
S11311100B4A90621A680A431A601A00D3699B0743
S1131120FCD47047084400411844004100040040C6
S113113015400000000C00401C2A0000000C004276
S113114000440041084A137EDB07FCD5064B986235
S11311501A00137E9B07FCD5034A137E5B07FCD55C
S1131160014B986AC0B27047000C004210B50400ED
S1131170FF200D4B9847012C0CD0002C03D0022CDF
S11311800DD0012004E08022D202084B1A60002016
S1131190C0B210BD8022054B1A600020F8E740223F
S11311A0024B1A600020F3E745110000144400418B
S11311B001280CD0002803D002280DD0012004E01F
S11311C08022D202074B1A600020C0B270478022EE
S11311D0044B1A600020F8E74022024B1A600020FA
S11311E0F3E7C04618440041002243088B4274D3FD
S11311F003098B425FD3030A8B4244D3030B8B4214
S113120028D3030C8B420DD3FF22090212BA030C1C
S11312108B4202D31212090265D0030B8B4219D3FD
S113122000E0090AC30B8B4201D3CB03C01A52411D
S1131230830B8B4201D38B03C01A5241430B8B4265
S113124001D34B03C01A5241030B8B4201D30B034E
S1131250C01A5241C30A8B4201D3CB02C01A524175
S1131260830A8B4201D38B02C01A5241430A8B4238
S113127001D34B02C01A5241030A8B4201D30B0221
S1131280C01A5241CDD2C3098B4201D3CB01C01A3B
S1131290524183098B4201D38B01C01A5241430945
S11312A08B4201D34B01C01A524103098B4201D333
S11312B00B01C01A5241C3088B4201D3CB00C01AA0
S11312C0524183088B4201D38B00C01A5241430818
S11312D08B4201D34B00C01A5241411A00D201463D
S11312E0524110467047FFE701B5002000F006F8B0
S11312F002BDC0460029F7D076E770477047C04664
S113130070B500220C4B04000D0001F05DF90028BB
S113131004D12000290001F0B7F870BD064B00226B
S11313202000290000F09AFD01F0AEF880231B068E
S11313309C466044F1E7C0460000E041F8B54546EC
S1131340DE4657464E460C03E0B54E00C90F8846AC
S11313500D00610A440F0C43C70019035800DB0F4A
S11313609B464B0A510F0B43760D400D1900D200DA
S1131370D84500D1AEE0351A002D00DCF6E0002897
S11313800FD1134300D1DBE06B1E002B00D037E1FB
S1131390BA1A9742BF41641A7F42E41B0126170020
S11313A024E0C64B9E424DD080231B041943382DA4
S11313B000DD07E11F2D00DD38E12020431B9A46A4
S11313C00B0050468340994613004846EB401843AF
S11313D0030050468240501E8241E9401A43BA1A23
S11313E0611A9742A441170064420C1B230262D580
S11313F06402650A002D00D1DFE0280001F0EEF858
S11314000300083B1F2B00DDD2E020223C00D21A4F
S11314109D40D4409F4025439E4200DDC4E09E1B76
S1131420731C1F2B00DDF1E0202238002900D21AA2
S1131430D840914097402C000143781E8741DC40FE
S113144000260F437B0709D00F233B40042B05D014
S11314503B1DBB42BF417F42E4191F0023022CD530
S1131460964B01369E4200D19AE04546944BFF08C4
S11314701C406007760564020743240B760D0021A7
S11314802403230B0C0D8F4A24051C4314403305FD
S113149023435B00ED075B082B43380019003CBC79
S11314A090469946A246AB46F8BD6446044300D133
S11314B011E2040067467B07C6D145466007FF0872
S11314C00743E4087D4B9E4230D024037605240B69
S11314D0760DD4E7331A9A46002B78DD002831D0F4
S11314E076488642AED08020000401435346382B10
S11314F000DCE9E00A43511E8A410021D219BA42B4
S1131500BF4109197C4217000C192302D3D56B4B38
S113151001369E4200D13AE10120694B1C407B0810
S113152007401F43E007074364088BE723003B435E
S113153000D1CBE18022120314432403240B9EE741
S11315402E007FE70800104300D1B4E0581E0028A5
S113155000D0DEE0BA18BA429B4164185B42E4183A
S1131560170001262302A6D50226D5E7002D6ED149
S1131570701C4005400D012800DCF9E0B81A8446CF
S113158087428041E51A40422D1A280200D489E09E
S1131590D71BBA4292411C1B5242A51AD84629E7CE
S11315A04546002400276AE7454CF61A2C4049E7D3
S11315B03D002838854000272EE7380001F00EF85A
S11315C020301DE70A43511E8A41002107E7002B02
S11315D000D0F3E0701C43055B0D012B00DCADE093
S11315E0364B984200D1D1E0BA18BA42BF416418D0
S11315F07F42E419E707520817436408060021E70D
S11316002E48854200D193E01D00D0E629001F3EFC
S1131610F140202B00D18DE04022D31A9D402F436E
S11316207D1EAF4100240F43002644E72B00080031
S1131630203BD8400300202D00D17DE04020451BF5
S1131640A9400A43511E8A4100211A43C7E6002ECD
S113165050D01A4EB04257D080266B429946360479
S113166034434B46382B00DDD6E01F2B00DD35E13B
S11316702026F51A2600AE40B2463E00DE40AC46B7
S1131680350056462E436546AF407D1EAF41DC40D3
S11316903743D71BBA4292410C1B5242A41A06008C
S11316A0D846A3E6644667462C4300D0A2E600254C
S11316B00026002706E71E00C4E6C046FF07000018
S11316C0FFFF7FFFFFFF0F801F2B63DC2020C31A67
S11316D0080098409C46834653461000D8400300B7
S11316E05846184363469A40531E9A415346024350
S11316F0D94003E726003E4306D0EB439946002B2E
S1131700C7D0944EB042ACD10C0017000600D846A6
S113171098E6904B9A450BD08246E7E6002800D025
S11317209EE01800104300D1E9E01C001700D846E1
S1131730884E87E6002572E7002182E723003B43B9
S1131740002E00D0ABE0002B00D1E7E00B001343E8
S113175000D177E6BA18BA42BF4164187F42E4194F
S1131760230200D4F2E07C4B17001C40060069E61B
S113177020003843002ED1D100285BD11C00144333
S113178000D1A8E01C001700D8465BE60600002440
S1131790002797E650460B002038C340994653462D
S11317A0202B00D195E0402350461B1A99400A4350
S11317B0511E8A414B4600211A439FE6002E30D128
S11317C026003E4367D0DB439A46002B1CD0614E73
S11317D0B04260D05346382B00DD96E01F2B00DD6D
S11317E09FE02026F31A26009E409C46B3465346AB
S11317F03E00DE4033005E461E4363469F407B1E30
S11318009F415346DC403743BF18974292416418C6
S11318105242A418060078E627437C1EA741002400
S113182037E74C4EB04236D080265B4236049A46A7
S11318303443CFE71800104300D103E6B81A8446B6
S11318406745AD41E01A6D42401B050200D42CE609
S1131850D71BBA4292411C1B5242A41AD846F1E546
S11318601800104300D163E7F80867070743802096
S1131870E4080003044208D0DD08054205D1D2087B
S1131880590711430F002C00D8467B0FE4001C437A
S1131890FF00304ED6E50C0017000600D2E5002B01
S11318A038D00B00134300D142E7F8086707074319
S11318B08020E40800030442E7D0CB080342E4D1CB
S11318C0D208490711430F001C00DEE7002700245B
S11318D0D5E500216BE700250027F3E54E462500FA
S11318E0203EF5404B462E00202B2DD04025ED1AEE
S11318F0AC4027437C1EA74100243743C9E680241B
S113190000252403134E0027DCE527437C1EA74152
S1131910002479E70C0017000E4E93E50C00170025
S113192090E556462300203EF34099465346202B2B
S11319300ED0402356469B1B9C4027437C1EA74148
S11319404B4600241F435FE70024D2E71700B2E5AB
S11319500024F2E7FF070000FFFF7FFFF0B55746C2
S11319604546DE464E46E0B50C0398464E00230B32
S113197087B0070092469B46760DCD0F002E6BD0A4
S11319806D4B9E4235D080245B46420F2404DB001D
S113199014431C43C3009946684BA3469C4600234A
S11319A000276644029343461C035A00DB0F50464B
S11319B0240B520D984600D176E05F4B9A426DD0CD
S11319C08023410F1B040B435C49E4008C461C43F9
S11319D0C300002062444146B6186940721C01915C
S11319E0944607430F2F00D9B0E0554ABF00D2599F
S11319F097465B460343994600D087E000239B4605
S1131A00023308270293CEE742460192022867D0A8
S1131A10032800D10EE2012800D062E10023002453
S1131A200022994601990140CDB2002112030B0D09
S1131A30120B1B051343434A240513401C43640043
S1131A40ED0764082C434846210007B03CBC90468F
S1131A509946A246AB46F0BD034399464FD05B4638
S1131A60002B00D189E1584600F0B8FD03000B3B80
S1131A701C2B00DD7AE11D22D31A3A0001005C46DA
S1131A80DA4008398C4013008F4023439B46B94603
S1131A9000232D4E0027361A029384E7534623432E
S1131AA02AD10024022096E75346234320D0002C59
S1131AB000D157E1200000F091FD03000B3B1C2BEB
S1131AC000DD49E11D21CB1A51460200D94053469D
S1131AD0083A944093400C431B4A121A00207AE7B8
S1131AE00125019B144C1D400023002299469CE7CC
S1131AF00024002201206EE7534603206BE70023F5
S1131B009B4601330427002602934CE703238146B6
S1131B100C27029347E780220023002512039946ED
S1131B20054C82E75C464B4602986FE75C464B46A1
S1131B30019502986AE7C046FF07000001FCFFFF19
S1131B40242A0000FFFF0F800DFCFFFF4A46494690
S1131B50170C1A0C1B041B0C08041900000C41433D
S1131B601500884619007D43794303958946290069
S1131B70150045434D44029545462D0CAA46029D49
S1131B805544A94506D98A46802149028946CA4452
S1131B9051460391290C0491414609042D04090C72
S1131BA088462900250C24044144240C0591210075
S1131BB041438846210079438A466843414650445C
S1131BC08146080C48446F43824503D98021490269
S1131BD089464F44010C89463900494402914146E3
S1131BE00F0404993F0C88460004C0198044414600
S1131BF0049159460F0C0904090C884659438A4636
S1131C0039005143894641464A435146090C8B46A3
S1131C107B43D2185A44934203D980235B029B46E8
S1131C20D94451460904090C8A46414661437C4320
S1131C30130C12044B445244A1468A463C004146CC
S1131C406C434D4351464D440F0C7D19A94503D9AE
S1131C508021490288464444049F0399B84641447C
S1131C608B468345804141428846514608042F04EF
S1131C70000C3F1858460299101889469042924128
S1131C804F44BA46524299469346C244D144CB4447
S1131C908F42BF41C245894199459B419345924139
S1131CA07F4249422D0C52420F435B4213437F193A
S1131CB0FF185B463C19DB0D059A64021C43430282
S1131CC013435D1EAB415A46C00D034352021343F6
S1131CD0E20156D501205A0803401343E207134397
S1131CE064085A48604400284DDD5A0709D00F2281
S1131CF01A40042A05D01A1D9A429B415B42E418FB
S1131D001300E20104D58020514AC000144060440D
S1131D10504A904200DDE3E60125DB0862071A43DE
S1131D206402019B9146220B4405640D1D407CE630
S1131D30802259461203114208D0144206D122438C
S1131D401203120B45469946434C6EE65B461A4312
S1131D501203120B404C68E603005446283B9C4097
S1131D600023B9E600F03AFC2030A6E60300283B45
S1131D709F400023BB4699468AE600F02FFC2030A2
S1131D8074E6B446ADE701252A1A382A06DD019B1C
S1131D9000241D4000230022994646E61F2A21DC28
S1131DA020252000AD1A1E00AB40A840D6405D1E81
S1131DB0AB4130431843D440430709D00F230340B9
S1131DC0042B05D00300181D98429B415B42E41884
S1131DD0230221D50125019B01241D40002300225B
S1131DE0994622E61F2521006D42281AC1400800A9
S1131DF0202A1DD05F35AA1A944023435C1EA341B8
S1131E00072503431D400022002D09D00F22002482
S1131E101A401800042AD6D1030065076402220B75
S1131E20DB082B4301259946019B00241D40FCE55A
S1131E300024E2E7802201251203224301991203C0
S1131E40120B0D409946044CEFE5C046FF03000019
S1131E50FFFFFFFEFE070000FF070000F0B5464647
S1131E60D6464F460C03C0B5CD0F4E00610A440F51
S1131E700C43C1005800400D84468A460F001903E4
S1131E80500F490A0143C648760DA846DB0FD2001D
S1131E90844500D1D8E001204340AB4200D1A6E004
S1131EA06046351A002D00DC05E1002810D10B0036
S1131EB0134300D1D7E06B1E002B00D04BE15346F7
S1131EC09F1ABA458041641A4042241A01261EE032
S1131ED0B34B9E4248D080231B041943382D00DDA8
S1131EE019E11F2D00DD4CE120230F005B1B1000C6
S1131EF09A409F40E840531E9A41E94007431743E4
S1131F005346DF1B611ABA45A44164420C1B2302E9
S1131F1000D4C5E06402650A002D00D1F6E0280073
S1131F2000F05CFB0300083B1F2B00DDE9E02022EE
S1131F303C00D21A9D40D4409F4025439E4200DD80
S1131F40DBE09E1B731C1F2B00DD0AE120223800FE
S1131F50D21A290097402C009140D8407A1E97410C
S1131F60DC40002601430F437B0709D00F233B408D
S1131F70042B05D03B1DBB42BF417F42E4191F0027
S1131F80230225D5864B01369E4200D1AFE0854B16
S1131F9001251C4043466207FF0864027605174387
S1131FA0240B760D1D4000212403230B0C0D7E4AC7
S1131FB024051C431440330523435B00ED075B08F1
S1131FC02B43380019001CBC90469946A246F0BD2C
S1131FD0012543466207FF081743E4081D40704B80
S1131FE09E4236D024037605240B760DDBE7634648
S1131FF0F31A002B00DC94E06046002835D06848D2
S11320008642B1D080273F043943382B00DCFDE001
S11320100A43170000217A1E9741574457458041CF
S1132020091944420C1923023AD55D4B01369E42EC
S113203000D14BE101225B4B1C407B0817401F433E
S1132040E207174364088FE70800104300D024E731
S113205021E723003B4300D1B9E18022120314435A
S11320602403240B9FE72E007EE70800104300D1D1
S1132070CAE0581E8446002800D0E7E05244524586
S1132080804164184042241817000126230207D512
S11320900226CFE764462C4300D1B3E12C00674607
S11320A07B0700D062E76307FF081F43012543460F
S11320B0E4081D4093E7002D78D1751C6D056D0D66
S11320C0012D00DCF2E05046801A8245BF41651ABA
S11320D07F42ED1B8446280200D48CE05046171A38
S11320E0BA4292410C1B5542651B984614E70125E0
S11320F0434600241D40002755E72A4CF61A2C407D
S113210032E73D0028388540002717E7380000F003
S113211065FA203006E70A43170000217A1E97412A
S1132120EEE6002B00D0E5E0731C9C465B055B0DDE
S1132130012B00DC9FE01A4B9C4500D1C5E05244C2
S113214052458041641840422418E7075208174357
S11321506408664608E71248854200D185E01D0000
S1132160BCE629001F3EF140202B00D17FE0402235
S1132170D31A9D402F437D1EAF4100240F430026F8
S11321808EE72B000F00203BDF40202D71D0402331
S11321905D1BA9400A43511E8A4100211743AFE643
S11321A0FF070000FFFF7FFFFFFF0F80002E3ED0E0
S11321B0B34EB44545D0802636046D423443382DA1
S11321C000DDA8E01F2D00DD1FE12026270050467A
S11321D0761BB740E84007435046B040461EB04126
S11321E0EC403843171ABA4292410C1B5242A41ACB
S11321F0664698468BE6644667462C4300D08BE6D9
S1132200002500260027EAE61E00ADE61F2B60DC51
S11322102027F81A0F00844687401000D84007434F
S113222060468240501E8241D9401743F5E626009D
S11322305046064305D0ED43002DD3D0904EB4450F
S1132240BDD10C001700664698468DE68C48834243
S11322500BD06346D9E6002D00D096E00800104369
S113226000D1E2E00C0017009846854E7CE600257C
S113227080E700218EE7230050460343002E00D060
S1132280A8E0002B00D1DEE00B00134300D16BE685
S113229052445245804164184042241817002302D6
S11322A000D4FDE6774B66461C405DE625005046AB
S11322B00543002ECFD1002D4FD10C00144300D183
S11322C0A0E00C00170098464EE66646002400275E
S11322D085E61F000800203FF8400700202B00D1AE
S11322E08EE04020C31A99400A43511E8A410021BE
S11322F0174392E6002E14D126005046064362D0BE
S1132300DB43002B5CD187189742924164185242F8
S1132310A418664687E650462043441EA041002484
S113232060E7574EB4454ED0802636045B423443B2
S1132330382B00DD7FE01F2B00DD8BE020262700FB
S11323405046F61AB740D84007435046B040461EA0
S1132350B0410743DC40BF18D6E70D00154300D158
S113236002E65046801A8245BF41651A7F42ED1B42
S11323708446280200D48DE65046171ABA42924188
S11323800C1B5242A41A9846EEE50D00154300D1E9
S11323906BE750466707C00807438020E408000342
S11323A0044207D0CD08054204D12C009846D70832
S11323B049070F437B0FE4001C43FF00304ED3E575
S11323C02F4EB445B4D10C0017006646CCE5002767
S11323D00024E8E5002B39D00B00134300D144E777
S11323E0C008670707438020E40800030442E1D0E3
S11323F0CB080342DED1D70849070F431C00D9E7B5
S1132400002171E700250027E9E52E002700203E82
S1132410F740202D2FD04026751BAC40504620435A
S1132420441EA04100243843DCE680240025240314
S1132430134E0027D3E5504620430700781E8741FA
S11324400024BF1860E70C0017008DE50C0017008E
S11324500B4E89E51E002700203EF740202B0CD0B0
S11324604026F31A9C4050462043441EA041074393
S11324700024BF1848E70024D0E70024F3E7C0464F
S1132480FF070000FFFF7FFF30B5134D0A034B0029
S1132490120B5B0DC90F0024AB4210DD0F4CA3429D
S11324A00FDC80240E4D64032243ED1A1F2D0BDD37
S11324B00C48C31ADA405442002900D11400200009
S11324C030BD094BCC18FAE7084CE840A4466344F5
S11324D09A400243EFE7C046FE0300001D040000DB
S11324E03304000013040000FFFFFF7FEDFBFFFF38
S11324F010B5041E28D000F071F8154B154A1B1AAC
S1132500D21A1F2A15DD144AD21A94400022240339
S11325105B05240B5B0D0021100024030A0D240B22
S1132520120522430D4C1B05224013435B0059083E
S113253010BD210091400A000B21081AC4405B051C
S11325402403240B5B0DE6E7002300240022E2E7CA
S11325501E0400003304000013040000FFFF0F807A
S11325608446101C62468C46191C634600E0C04633
S11325701FB500F0EFF8002801D40021C8421FBDA8
S113258010B500F049F84042013010BD10B500F01C
S1132590E1F8002801DB002010BD012010BDC04679
S11325A010B500F0D7F8002801DD002010BD01208F
S11325B010BDC04610B500F069F8002801DC002009
S11325C010BD012010BDC04610B500F05FF8002812
S11325D001DA002010BD012010BDC0461C210123DA
S11325E01B04984201D3000C10391B0A984201D3F2
S11325F0000A08391B09984201D30009043902A2D0
S1132600105C40187047C046040302020101010136
S11326100000000000000000F0B54F464646D646D4
S11326205C00C0B51F03DB0F9A46174B0E034D0029
S113263084468046360B6D0DC90F91463F0B640DE1
S113264001209D4208D09C4201D0A5420BD01CBC65
S113265090469946A246F0BD63463343F7D1AC4257
S1132660F5D13A43F3D10120BE42F0D1C845EED1B1
S1132670514507D0002DEAD163461E433000461E63
S1132680B041E4E70020E2E7FF070000F0B545466B
S1132690DE4657464E46E0B51F033D0B2C4F0E0356
S11326A04C00AB465D008446360B640DC90F904662
S11326B06D0DDB0FBC422AD0254FBD422DD0002C1E
S11326C00FD130430700814678427841C0B2002DD3
S11326D017D15F463A4314D14B460020002B0AD051
S11326E006E0002D02D15846024301D0994218D089
S11326F04842012108433CBC90469946A246AB4659
S1132700F0BD0028F2D00120013B1843F3E7370065
S11327100743D1D002204042EDE75F461743CED0B5
S1132720F8E7AC42E4DC03DA481E01210843E2E79F
S11327305E45DDD806D000205E45DCD20123481E6C
S11327401843D8E7C445D3D80020C445F6D3D2E70C
S1132750FF070000F0B54E464546DE4657465C008E
S1132760E0B51F03DB0F99462A4B0E034D00C90F3A
S11327708446360B6D0D8B4690463F0B640D9D428F
S113278020D0244B9C4222D0002D12D1304343420E
S11327904341DBB2002C1FD0002B0CD04B46012050
S11327A0013B034318003CBC90469946A246AB4605
S11327B0F0BD002C16D0CB4517D05B4659420123FF
S11327C00B43EFE7310002230143EBD1D9E7390092
S11327D002231143E6D1D7E73A43DDD10023002891
S11327E0E0D0EAE73A43E6D1E7E7A542E5DC05DBDA
S11327F0BE42E2D807D00023BE42D3D259460123B9
S113280001390B43CEE7C445D7D80023C445F5D3DB
S1132810C8E7C046FF07000070B50D4E0D4D0024FB
S1132820AD1BAD1005D0A300F35801349847A54261
S1132830F9D100F019F9084E084D0024AD1BAD1074
S113284005D0A300F35801349847A542F9D170BDCF
S1132850742A0000742A0000742A00007C2A0000F4
S1132860034B10B5002B02D0024800F005F810BD50
S1132870000000008928000010B501000023002298
S1132880002000F01FF810BD70B5094B094CE41A84
S1132890A41009D0084AA518AD00ED182B68013C16
S11328A09847043D002CF9D100F0E8F870BDC0460B
S11328B0882A00008C2A0000FFFFFF3F7047C046B3
S11328C07047C046F0B54E464546DE465746E0B52D
S11328D0364D83B00600286898460F009146FFF7EE
S11328E0EDFF334B1C68A4235B00E058002852D052
S11328F043681F2B13DC5A1C0192002E28D1019A25
S113290002339B0042601F502868FFF7D9FF002064
S113291003B03CBC90469946A246AB46F0BD254B5D
S1132920002B3DD0C820400000E000BF002837D075
S1132930A42200235200A15843600160A0504032F9
S1132940835004328350013301930023002ED6D0E8
S11329509A00924682444A46882154466250C422D0
S11329605200914681444A468739994012688B4601
S11329700A4394464A466146116084224146520005
S1132980A150022EBBD102005C468D32FF32116889
S11329900C431460B3E720004D30FF30E050A7E74C
S11329A02868FFF78DFF01204042B1E7380400207A
S11329B0642A000000000000484552450000000061
S11329C0BE060000A2060000C20600003A0600008F
S11329D0CA060000420600004A0600005206000033
S11329E05A060000620600006A0600007206000033
S11329F07A060000820600008A06000092060000A3
S1132A009A060000AE090000CC090000D8090000B5
S1132A10E4090000F0090000FC0900000C0030008B
S1132A200B0001D24C1B00000C1A00000C1A000011
S1132A30081A0000241B0000241B0000161B0000C1
S1132A40081A0000241B0000161B0000241B0000B1
S1132A50081A00002C1B00002C1B00002C1B00007B
S1132A60301D000010000020F8B5C046F8BC08BCBA
S1132A709E46704761280000DD000000F8B5C0469E
S10F2A80F8BC08BC9E467047B50000007E
S1132A8C40420F00080064002C01580200000000B2
S1132A9C00000000FC02002064030020CC03002092
S1132AAC0000000000000000000000000000000016
S1132ABC0000000000000000000000000000000006
S1132ACC00000000000000000000000000000000F6
S1132ADC00000000000000000000000000000000E6
S1132AEC00000000000000000000000000000000D6
S1132AFC00000000000000000000000000000000C6
S1132B0C00000000000000000000000000000000B5
S1132B1C00000000000000000000000000000000A5
S1132B2C0000000000000000000000000000000095
S1132B3C0000000000000000010000000000000084
S1132B4C0E33CDAB34126DE6ECDE05000B00000049
S1132B5C0000000000000000000000000000000065
S1132B6C0000000000000000000000000000000055
S1132B7C0000000000000000000000000000000045
S1132B8C0000000000000000000000000000000035
S10F2EBC00000000000000009005002051
S9030000FC
