:10000000E86400201901000015010000150100003E
:1000100000000000000000000000000000000000E0
:1000200000000000000000000000000015010000BA
:10003000000000000000000091110000D511000038
:100040001501000015010000150100001501000058
:100050001501000015010000150100001501000048
:100060001501000015010000150100001501000038
:100070001501000015010000150100001501000028
:100080001501000015010000150100001501000018
:100090001501000000000000000000001501000034
:1000A00015010000150100001501000015010000F8
:1000B0000000000010B5064C2378002B07D1054B3B
:1000C000002B02D0044800E000BF0123237010BDC4
:1000D00044040020000000004C500000084B10B504
:1000E000002B03D00749084800E000BF0748036819
:1000F000002B00D110BD064B002BFBD09847F9E731
:1001000000000000480400204C5000004C5000004B
:1001100000000000FEE70000F8B52A4A2A4B9A4288
:1001200011D01A00294B9A420DD2294A03339B1A47
:100130009B0801339B000022234822498C5884509D
:1001400004329A42FAD1234A234B9A420AD2D34329
:1001500021495B1803218B4304339B18002102C201
:100160009342FCD11D4AFF211D4B8B439360FD3907
:1001700090235B001B4AD1501B4AD3780325AB4325
:1001800002242343D370D3780C27BB430826334380
:10019000D370164B987B30229043202210439873E3
:1001A000997BB943314399739A7BAA4322439A734B
:1001B0000F4A536880210B4353600E4B98470E4BF8
:1001C0009847FEE74C500000000000204404002047
:1001D0000400002044040020E844002000ED00E07A
:1001E0000000000000700041005000410048004144
:1001F00000400041ED4B000061040000014A024B49
:100200001A60704740420F0000000020C001054BFB
:100210009C4660444318403300221A7001238B40EF
:100220008360704700440041C001064B9C46604417
:100230004318403303221A7001238B40436043620A
:100240007047C04600440041F8B5CE46474680B5E9
:10025000164E174B9946320016494846164B98479A
:10026000164B1870164C64212068164B9846984718
:10027000154FB3791B02F27913433B600023002230
:1002800000212068114DA84764216068C0473A6882
:100290004B4619880E480F4B984760680023002290
:1002A0000021A84710200C4B9847D4E76444002055
:1002B00070440020584400209D0B00006244002040
:1002C00060040020811800005C440020A514000098
:1002D000A44E0000510E0000092000000C4B00222B
:1002E0005B215A540B499960D9610B49086A8023F4
:1002F0001B0103430B620949094B5980094BFA2141
:10030000490119831A82084A1A8020229A73704779
:100310000044004100040008000400401B400000AD
:10032000000C0040002C00422220000070B50D4956
:1003300020228B7B1342FCD00B4A0C4BDA6120222B
:10034000084B9A7300280BD000241900074E064D65
:100350008B7B1342FCD00134F5618A73A042F7D144
:1003600070BDC046002C004200040008004400415B
:1003700070B5294C0AE00120284B984706E08022FE
:10038000D201274B5A610120244B984764212068F1
:10039000244B9847244D254B1B682B6000230022DB
:1003A00000212068224EB0472868431E942BE6D8CF
:1003B000204B9847204D214A214BA847214B984775
:1003C0000022214BA847214B9847214B18808022BF
:1003D000D201134B9A6132201E4B9847124B1B6877
:1003E000142BC8D98022D2010D4B5A610A4E6421C8
:1003F00070680C4B9847164D29881748174B98473B
:100400007068002300220021094EB04728880009A7
:10041000024B9847BAE7C04660040020092000005C
:1004200000440041811800006C4400205C4400201E
:10043000A5140000354B0000DD3E00009E5E29CB78
:1004400010C7AA3F61290000000079401930000060
:10045000604400202D030000B84E0000510E000043
:1004600070B582B02C4B98472C4A136A2C490B402C
:1004700013622C4B98472C4B98472C4B98472C4D8C
:10048000287A0F212B4B9847E026F60031000020F8
:10049000294CA04731000120A04764220021002000
:1004A000264CA047642200210120A047642200219D
:1004B0000220A047642200210320A04764220021DB
:1004C0000420A047642200210520A0470E2100201F
:1004D0001B4B9847092100201A4B984701201A4CC2
:1004E000A04728600120A04768608025AD00002655
:1004F00001960223009300232A0014491448154C46
:10050000A04701960123009300232A0012491348B3
:10051000A047134B9847FEE7FD010000000800408C
:10052000FFFCFFFF45280000A9270000DD020000B6
:1005300060040020E90B0000250A0000A50A000065
:100540000D0200002902000031160000C84E000014
:1005500049020000AD1B0000DC4E000071030000EA
:10056000811D000010B5054C2078054B9847C02030
:10057000044B98472078044B984710BD82440020D4
:10058000E5280000BD2800002929000070B50600FC
:10059000084D2878084B98470320084CA0473000A6
:1005A000A0470020A04704002878054B984720006A
:1005B00070BDC04682440020E5280000BD28000030
:1005C00029290000F8B507000E0015000E4B187819
:1005D0000E4B984703200E4CA0473800A047002D33
:1005E0000DD03400013DEDB275190836084F0020DA
:1005F000B8472070AC4202D00134B442F7D1024B6C
:100600001878044B9847F8BD82440020E528000084
:10061000BD28000029290000F8B507000E00074D8D
:100620002878074B98470220064CA0473800A0477F
:100630003000A0472878044B9847F8BD824400203A
:10064000E5280000BD28000029290000F8B50700B2
:100650000E0015000D4B18780D4B984702200D4CDD
:10066000A0473800A047002D0AD03400013DEDB26C
:1006700001357519074E2078B0470134AC42FAD1E4
:10068000024B1878044B9847F8BDC04682440020BE
:10069000E5280000BD28000029290000F0B583B03E
:1006A00007000E000192094D2878094B9847052054
:1006B000084CA0473800A0473000A0470198A04749
:1006C0002878054B984703B0F0BDC046824400200F
:1006D000E5280000BD2800002929000070B5084D5C
:1006E0002878084B9847A020074CA0470020A04737
:1006F00006000020A0472878044B9847300070BDC2
:1007000082440020E5280000BD28000029290000BF
:1007100010B504000200E0210F20064B98470F207F
:10072000054B9847E0231840001B431E9841C0B278
:1007300010BDC0469D0600008D05000070B5102854
:1007400045D88000274B1B589F468726FF250F2141
:1007500032E00726BE2509212EE08726FF25072146
:100760002AE08726FA25072126E08726FF25032190
:1007700022E00726BE2503211EE00726AD25032122
:100780001AE08726FA25032116E08626F0250321A4
:1007900012E08726FA2501210EE08526F125412168
:1007A0000AE08626F025002106E08226D0250021D9
:1007B00002E08726FF253F212A200B4CA047290075
:1007C0002920A04731002820A047002070BD01202B
:1007D000FCE78726FF251F21EEE78526F1250F215F
:1007E000EAE7C046EC4E00001906000030B583B0C1
:1007F00093B2012913D001A9CA701B0A8B70120C85
:1008000053014B70D2080A70042201A90D4B98477E
:10081000FA235B00013B002BFCD103B030BD01A9E2
:10082000CA701B0A8B70120CD4B203232340082514
:100830002B43E4001F25AC4323434B7052090A703D
:10084000E2E7C0464D06000070B5002201212020DD
:100850001C4CA047002201212420A0470022012196
:100860000020A047002200210420A04700220121EF
:100870000820A047002200211020A04700220121CB
:100880001420A047002200211820A04730240E4D3C
:1008900000212000A84720001030C0B20021A84746
:1008A00020002030C0B20021A8470134E4B23E2C21
:1008B000EED100216020044CA04700217020A04709
:1008C00070BDC046ED0700001906000070B50500B8
:1008D000214B9847214B013B002BFCD18020204B22
:1008E0009847041E06D0FA235B00013B002BFCD185
:1008F000200070BDFA235B00013B002BFCD12800D7
:10090000184B9847002804D0144B013B002BFCD116
:10091000EEE7124B013B002BFCD1134B9847032110
:100920002B20124B9847042264216020104CA047D2
:10093000002260217020A0470020094B9847041E28
:1009400004D0064B013B002BFCD1D1E7034B013B0C
:10095000002BFCD1CCE7C04665050000DC0500009B
:10096000110700003D0700004908000019060000BB
:100970009D06000070B582B00D00140000230B70BE
:10098000138001AE042231000C4B98477078317807
:10099000C90043095B18238002070DD59B00032281
:1009A0000240D3181B0201A98A78D3181B02CA7807
:1009B000D318238001232B7002B070BDC505000041
:1009C00070B504000F4A1049104B9847601EC0B222
:1009D0000F4DA8470600201DC0B2A84733070CD40E
:1009E00000220C4B1A700F2202400B4B1A70053478
:1009F000E0B20A490A4B984770BD0122054B1A70B4
:100A0000F1E7C046764400208044002075090000CC
:100A10008D050000744400208344002078440020A9
:100A2000C505000070B505000C001B4B013B002BF9
:100A3000FCD18020194B9847FA235B00013B002B27
:100A4000FCD1002804D0144B013B002BFCD170BD1D
:100A5000FA235B00013B002BFCD1E10F002D0BD0F2
:100A6000012D0ED000200D4B984700280ED00A4BC8
:100A7000013B002BFCD1EAE722002020084B9847DD
:100A8000F0E722002420064B9847EBE7024B013B9E
:100A9000002BFCD1DBE7C046DC050000110700009D
:100AA000ED07000070B506000C001500254B013B5A
:100AB000002BFCD18020244B9847002804D0214BE8
:100AC000013B002BFCD170BDFA235B00013B002BE6
:100AD000FCD1052E08D8B6001C4B9B599F462A0016
:100AE000210000201A4B98470020174B98470028F8
:100AF00022D0144B013B002BFCD1E4E72A0021005B
:100B00000420134B9847EFE72A0021000820104BE0
:100B10009847E9E72A00210010200D4B9847E3E7AA
:100B20002A00210014200A4B9847DDE72A00210003
:100B30001820074B9847D7E7024B013B002BFCD10D
:100B4000C1E7C046DC05000011070000304F00007F
:100B5000ED07000010B50E4B9847C30704D40423DB
:100B600082070BD4180010BD61200A4B9847002261
:100B700001212C20084B98470023F3E77120054BF7
:100B80009847002202212C20034B98470023E9E7D5
:100B9000DD060000C10900009D06000070B50500DB
:100BA0000E0014000C4B9847002813D10B4B1A78F9
:100BB00032700B4A12882A801B78002B0ADD002332
:100BC000084D0649EA5CE25401330A789A4201DD95
:100BD000082BF7D170BDC046550B000083440020A0
:100BE000764400207844002010B5044B18700800AB
:100BF000034B9847431E9841C0B210BD8244002069
:100C0000CD08000070B504002A4B98472A4B9B681A
:100C1000002B11D00025002C46D0200008304307BF
:100C200002D0072398430830431E244A00259342EC
:100C30003AD821490B6813E01F490B0014330722EF
:100C400093430B6000254D601D4A1E481061D5601E
:100C500058600C321A6001238B60DBE71900130027
:100C60005A68904202D91A68002AF7D1144A0C3205
:100C700093421DD00D6808351A680A605A68121A26
:100C8000102A0CD91C186260586060680A4900E09C
:100C900011000A685668B042FAD822600C600A4A0D
:100CA0005B681168CB1A1360084B9847280070BD29
:100CB0000025F9E7E91D00006C040020763E0000E5
:100CC000EC420020783E000004000020151F0000C8
:100CD00070B5041E16D00500083D0B4B9847696897
:100CE0000A4A00E01A00136858688142FAD8083CA2
:100CF00023601560064A636811688C46634413607C
:100D0000044B984770BDC046E91D00006C040020EC
:100D100004000020151F0000030008334360012277
:100D200052428260C3600361002303607047002366
:100D30000361704743684B609A688A609A685160A3
:100D400099600861036801330360704730B50C682F
:100D500002000832631C02D1026904E01A005368E1
:100D60001D68AC42FAD253684B6099608A6051604A
:100D7000086103680133036030BD0369426881681C
:100D800091608268416851605A68904206D00022A2
:100D900002611A68013A1A601868704782685A60DE
:100DA000F5E70000024A1368591C1160187070477B
:100DB0000043002010B53023092805D9064B1A79C5
:100DC0003723002A00D120331818C0B2034B9847AC
:100DD0000122014B5A7110BD00430020A50D0000F7
:100DE00010B50E4B1A899A60824210D30023121A52
:100DF0000133DBB29042FAD908498A604A79002A65
:100E000001D1002B02D01800054B984710BD034BB1
:100E10005B79002BFAD00023F5E7C04600430020A1
:100E2000B50D00000A2808D0084901220B7E1342A4
:100E3000FCD080B2054B18857047044901220B7E17
:100E40001342FCD00D22014B1A85EDE70008004249
:100E50000FB4F0B5DE4657464E464546E0B587B07E
:100E600010AB80CB0593734B0C330293714B9A46B6
:100E7000714B984653460C3303938CE07B78302BB0
:100E800029D002370022934600241A00303A092A5A
:100E90000CD8A200A4186400303CE418E4B27A1C18
:100EA0003B781700190030390929F2D9614A0299B3
:100EB000116000225F494A71632B00D17DE00FD899
:100EC000252B00D186E0582B11D0002B00D1A6E0B5
:100ED000584D0C353CE0BB78033701229346D3E7ED
:100EE000732B72D01BD9752B1BD0782BF0D1514DA1
:100EF000583B594259412971059B1A1D05921B689F
:100F0000AB60802040014D4EB04780204000B0478C
:100F10001020B047287A4A4B98470C3518E0642BCC
:100F2000D6D1059A111D0591126842498A60642B39
:100F30003BD04448414DA847FA208000A847642090
:100F4000A8470A20A8473B4D287A3D4B98470C35C7
:100F500000235246126813706B1C994653464A464A
:100F60001A602878002855D0002C0CD0AA1C631ECB
:100F7000DBB21100561E3678002E3CD001321C1E0A
:100F8000F5D12C4B196028784D46C04701356B1EB2
:100F900018780028F9D13878002840D0252800D1C9
:100FA0006CE70137244B9847F5E7002AC1DA524233
:100FB0008A602D20244B9847BBE7059B1A1D05929C
:100FC0001878214B9847039DC2E7059B1A1D05928F
:100FD0001D68BDE725201C4B9847164D0C35B7E71B
:100FE0001E000198A047731EDBB2002EF8D12878AE
:100FF0000028C9D1CFE70F4A1160023CE6B2002BAE
:10100000C2D020245B46002B00D03024E3B20193F1
:10101000094CE6E7661EF6B2002CF2D1BBE707B03A
:101020003CBC90469946A246AB46F0BC08BC04B016
:101030001847C04600430020250E0000E10D0000C7
:10104000B50D000010270000A50D000082B00023A0
:101050000193064B1B68013301D072B6FEE772B6EE
:10106000019B002BFCD002B07047C0460800002056
:101070000B4A13681868203080F30988022080F337
:101080001488BFF36F8F3FBCAE4608BC04BC62B689
:101090001847C046C046C046C046C046C046C046C7
:1010A000CC43002010B5031F802464041C60043B63
:1010B0001960043B02491960143B1A60403810BDA6
:1010C0004D10000010B50F4B1968FF2212040A439F
:1010D0001A601968FF2212060A431A600A4A00239E
:1010E00013600A490B600A480A4908600721116029
:1010F000094A1360094B9847094B9847094B984791
:10110000002010BD20ED00E010E000E018E000E05D
:10111000FF76010014E000E00800002071100000DC
:10112000492000004D10000080225205034B1A6038
:10113000BFF34F8FBFF36F8F7047C04604ED00E0E1
:1011400072B6044A136801331360BFF34F8FBFF3C5
:101150006F8F704708000020064B1B68002B01D1E1
:1011600072B6FEE7013B034A1360002B00D162B662
:101170007047C04608000020EFF3108072B6704739
:1011800080F310887047000000000000000000009D
:10119000EFF309800E4B1A6820381060F0C0444607
:1011A0004D4656465F46F0C008B572B600F04CFF9B
:1011B00062B60CBC116808681030F0C8A046A94699
:1011C000B246BB4680F309882038F0C81847C046AD
:1011D000CC43002010B5074B98470400064B9847B6
:1011E000002803D080225205044B1A602000044BD3
:1011F000984710BD79110000051E000004ED00E0C5
:101200008111000010B50400034B9847A46B034BF9
:1012100098476042604110BD411100005911000023
:1012200070B504001600856B026C002A0BD10020FB
:101230002368834204D16068164B9847002363609B
:101240000135A56370BD002E0ED18068124B984702
:10125000A368226C94466344A360002062689342B2
:10126000EED32368A360EBE7C0680B4B9847236C71
:101270005B42E268D218E26021688A4203D2626867
:1012800094466344E3600020022ED9D18542D7D032
:10129000013DD5E7FD220000354C000070B582B05D
:1012A00001900A00846C002C05D0A16BE36B99427D
:1012B00003D372B6FEE772B6FEE7A16B00268B423F
:1012C00002D8300002B070BD4523E55C6DB201A9C3
:1012D00020000A4B984706006B1C0AD1636A002B5A
:1012E000EFD020002430064B98470028E9D0012693
:1012F000E7E701356DB24523E554E2E7211200002E
:101300004121000010B50C00026C002A0BD0C3680C
:101310009B18C36041688B4201D30368C360C168F6
:101320002000014B984710BD354C0000F8B5070070
:10133000254B98474523FC5C64B2002C1CDD234EF2
:10134000234D0BE07B6A002B16D038002430A847D1
:1013500000280ED1013C64B2002C0DD0BB6C002BD8
:10136000F0D000213800B0470028F3D0194B98473F
:10137000F0E7184B9847EDE7FF224523FA54164B48
:101380009847114B98474423FC5C64B2002C14DD51
:101390003B69002B11D03D0010350D4E06E0013C9D
:1013A00064B2002C09D03B69002B06D02800B0475E
:1013B0000028F4D0074B9847F1E7FF224423FA5462
:1013C000054B9847F8BDC046411100009D12000032
:1013D000412100003D2200005911000070B50400B9
:1013E0000D00002821D0174B98472268216CE36B31
:1013F0004B43D01860600020A063A2605B1AD31832
:10140000E360FF234422A3540132A354002D11D1E1
:101410002369002B05D0200010300B4B9847002883
:1014200005D10A4B9847012070BD72B6FEE7084B04
:101430009847F6E720001030064DA84720002430DA
:10144000A847EEE7411100004121000059110000BA
:1014500029110000190D0000F8B506000D00170055
:10146000002801D172B6FEE70800704354300B4BE0
:101470009847041E10D0002D03D00300543303609E
:1014800000E02060E663256401212000044B9847BA
:101490005023E7540023A3642000F8BD050C00008E
:1014A000DD130000F0B5CE46474680B585B0040098
:1014B0000F0001921D0000280CD000290CD0022D35
:1014C0000FD04E4B9847002810D1019B002B11D014
:1014D00072B6FEE772B6FEE7036C002BEFD072B671
:1014E000FEE7E36B012BECD072B6FEE70026444B1F
:1014F00098464CE00026FAE72A0039002000414BCC
:101500009847A36C002B0FD0290020003E4B984732
:10151000002801D03D4B98473D4B9847012005B02E
:101520000CBC90469946F0BD636A002B08D02000A1
:101530002430384B98470028EED0344B9847EBE7DF
:101540000028E9D0314B9847E6E7314B9847002017
:10155000E5E72F4B984701A902A82F4B9847002891
:1015600044D1274B9847A36B9946E66B284B984785
:10157000B14535D1200010300199284B9847200003
:10158000274B9847274B9847002826D00126C0476D
:10159000A36BE26B9342AFD3022DADD0019B002B26
:1015A000D3D0002E02D102A81F4B9847184B984762
:1015B0001E4B9847124B98474423E35C5BB20133C0
:1015C00002D100224423E2544523E35C5BB20133A1
:1015D000BFD100224523E254BBE70C4B9847D5E727
:1015E00020000F4B98470F4B9847CFE720000C4B3C
:1015F00098470C4B9847002091E7C04649220000CD
:1016000041110000211200009D120000291100006C
:101610005911000041210000D1210000DD2000000F
:101620002D130000151F0000C1210000E91D00005E
:1016300070B5020000210120064B9847041E07D018
:10164000002343600360C36000220021024DA847CD
:10165000200070BD59140000A5140000F0B583B03F
:101660000400019116001D00002812D0019B002BE0
:1016700011D0022D14D0284B98470090A36BE26B39
:101680009A422FD800250098244B9847280003B091
:10169000F0BD72B6FEE7036C002BEAD072B6FEE72F
:1016A000E36B012B1AD072B6FEE7636A0125002BAB
:1016B000E9D0200024301A4B98470028E3D0002EB0
:1016C0000AD001233360DEE77B1C5BB24522A354C2
:1016D0000125D8E70125D6E70125D4E70E4B984729
:1016E0000090A36B4523E75C7FB22A00019920009C
:1016F0000C4B98477B1CE7D1A36C002BD5D029005D
:101700002000094B984701250028BCD0002EE1D0CD
:1017100001233360B7E7C046791100008111000052
:1017200041210000211200009D120000F0B5C646C4
:1017300000B584B004000F00019200280AD00029EF
:101740000AD0424B984700280BD1019B002B0CD0AC
:1017500072B6FEE772B6FEE7036C002BF1D072B6EC
:10176000FEE700263A4B98462FE00026FAE73900BC
:101770002000384B9847013DA5632369002B07D013
:1017800020001030344B9847002801D0334B984745
:10179000334B9847012004B004BC9046F0BD304B59
:1017A00098470020F7E702A82E4B984716E0002242
:1017B0004423E2541DE000224523E2541EE02000B1
:1017C000294B9847294B98470126C047A56B002D08
:1017D000CDD1019B002BE2D0002EE4D0204B9847C6
:1017E000234B98471A4B98474423E35C5BB2013381
:1017F000DDD04523E35C5BB20133DCD0184B984766
:1018000001A902A81B4B9847002813D120001A4BAE
:1018100098470028D3D0200024300199174B9847CF
:101820002000114B9847114B98470028CCD10B4B07
:101830009847C9E720000C4B98470C4B984720006D
:101840000D4B98470028BFD00020A4E74922000094
:101850004111000005130000412100002911000082
:1018600059110000C12100002D130000151F0000B8
:10187000E91D0000D121000005120000DD2000005C
:10188000F0B585B0041E019104D0036C002B03D089
:1018900072B6FEE772B6FEE7504B9847002804D1B7
:1018A000019B002B05D072B6FEE7002500264C4FA9
:1018B00048E000250026FAE7013BA3632368002BDC
:1018C00002D1484B984760602369002B07D0200065
:1018D0001030454B9847002801D0444B9847444B63
:1018E00098470125280005B0F0BD002D01D072B643
:1018F000FEE73F4B9847F5E702A83E4B98472AE0A2
:1019000000224423E25431E000224523E25432E035
:10191000334B98476068384B98470500344B9847DD
:1019200039E02000354B9847354B984709E02000B7
:10193000324B9847324B98472000324B984700284B
:1019400038D10126B847A36B002BB5D1019B002BE2
:10195000CBD0002ED0D0264B98472B4B9847204B0E
:1019600098474423E35C5BB20133C9D04523E35C71
:101970005BB20133C8D01E4B984701A902A8234B84
:1019800098470028D3D120001E4B98470028C8D084
:101990002368002BBCD02000243001991C4B9847B1
:1019A0002000164B9847164B98470028C9D10F4B7B
:1019B0009847C6E7002D00D194E7094B9847636A22
:1019C0000021002B03D0236B1B680531C91A606806
:1019D000104B9847064B9847002583E749220000A3
:1019E00041110000052400004121000029110000E0
:1019F00059110000C1210000652200002D130000D4
:101A0000151F000005120000E91D0000D121000093
:101A1000DD2000007923000010B50A4B1B68002B65
:101A200009D00123074CDA00A258002A04D0013360
:101A3000082BF8D110BD0023024ADB009950D318BF
:101A40005860F7E78444002070B504000D001600CC
:101A5000114B98474423E35C5BB201330DD045231F
:101A6000E35C5BB201330CD00C4B9847A36B002BAB
:101A70000BD020000A4B984770BD00224423E2544B
:101A8000EDE700224523E254EEE720002430320047
:101A90002900044B9847ECE7411100005911000060
:101AA0002D13000009210000084B9B6A1B68002BC6
:101AB00006D0064B9A6AD268D2685268DA627047DA
:101AC00001225242014BDA62F9E7C0461843002076
:101AD000F8B5CE46474680B5124B9846124F1C00CB
:101AE000124B994643461B6B002B14D0B847236C0E
:101AF000DD68281DC847A36C013BA364236B013B31
:101B000023630B4B9847286B0A4EB0472800B04719
:101B1000236B002BEAD1034BDB6C012BE2D9064B84
:101B20009847DFE718430020411100007B0D0000BB
:101B300059110000D10C00002911000070B50400FB
:101B40000D00154B1E6B586B0430144B9847631CEB
:101B500012D03419104B5B6B5C60A64215D8104D47
:101B6000A86A0D4B596B04310E4B9847EB6A9C42A7
:101B700011D20B4BDC620EE0002DEAD0064B596B04
:101B800004310748084B984705E0034B986B596BA5
:101B90000431044B984770BD984300207B0D000032
:101BA000184300204D0D0000350D0000F0B5D6465D
:101BB0004F464646C0B584B001900D000293970091
:101BC0003800634B9847061E00D189E05420604BD3
:101BD0009847041E00D180E006633A00A52130003A
:101BE0005C4B98473A1F236B9C46624407239A43F9
:101BF00090462A782D33E2542B78002B0CD06B1CA6
:101C0000220035320535197811701978002903D072
:101C100001330132AB42F6D100223823E2540C9F4B
:101C2000042F00D90427E76267640026A664231DF9
:101C300003931800484DA84720001830A847246196
:101C40000523DB1BA3616462E6645023E654029A19
:101C500001994046414B984720600D9B002B00D0D6
:101C60001C603F4B98473F4A936C013393643E4B53
:101C70005B6B002B37D03C4B5B6E002B07D13A4B94
:101C80005B6BDB6AE26A934201D8374B5C6336498F
:101C90008B6E01338B66E363E26ACB6E9A4200D9A6
:101CA000CA669000821892002E484C308018039922
:101CB0002E4B98472E4B98472B4B5B6E0120002BE9
:101CC00005D0294B5B6BDA6AE36A9A423BD304B0D6
:101CD0001CBC90469946A246F0BD3000254B984763
:101CE00001204042F3E7204B5C63936C012BCED183
:101CF000170010004C30204EB04738006030B0471D
:101D000038007430B04738008830B04738009C3015
:101D1000B047154B98463C2343449A461800B047B9
:101D20005023434499461800B04738001430B04758
:101D300038003430B0473800B0475346BB624346A2
:101D40004A469A63A3E70D4B98470120BFE7C04678
:101D5000050C0000B94C00002F0D0000A51000007C
:101D6000411100001843002098430020350D000069
:101D700059110000D10C0000190D000029110000BC
:101D800010B582B0114B74330193002300934622A7
:101D90000F491048104CA047012803D0431C12D013
:101DA00002B010BD0D4B98470128F7D172B6012241
:101DB00052420B4BDA62054B02325A6600221A631A
:101DC000084B9847ECE772B6FEE7C0469843002000
:101DD000484F0000D11A0000AD1B0000C5240000D0
:101DE00018430020C5100000024A136F0133136727
:101DF0007047C04698430020014B186B7047C0469F
:101E000098430020F8B5CE46474680B53B4B1B6F44
:101E1000002B64D1394B1E6B01361E63002E11D18D
:101E2000374B9B6A1B68002B01D072B6FEE7344A21
:101E3000916A324B986B906299639A6F01329A67FC
:101E4000304B98472E4BDB6A00249E4237D3002448
:101E50002B4B99464C229446634498464B469B6ACA
:101E60001B68002B27D0264B9B6ADB68DF687B68EA
:101E70009E4231D33D1D2800234B9847BB6A002B5F
:101E800003D038001830204B9847FB6A1B4AD26EAB
:101E9000934201D9194AD3669800C0188000404483
:101EA00029001A4B9847154B5B6BFA6ADB6A9A421A
:101EB000D4D30124D2E701225242114BDA620F4BF4
:101EC0005B6BDA6A93009B189B000D4AD318DB6C9E
:101ED000012B09D9012407E0094AD362EFE7074A39
:101EE000D36F0133D3670024094B1B68002B00D04C
:101EF000012420000CBC90469946F8BD9843002070
:101F000018430020A91A00007B0D0000350D0000C9
:101F100018440020F0B583B0314B1B6F002B01D16A
:101F200072B6FEE72F4B98472D4B1A6F013A1A678E
:101F30001B6F0024002B04D12B4B9B6C0025002B26
:101F400004D12A4B9847200003B0F0BD264F3E0035
:101F50004C367B69002B22D0234B1B6ADD6828009E
:101F60001830234CA0472B1D01931800A047EB6AA3
:101F70001B4AD26E934201D9194AD3669800C01801
:101F80008000301801991B4B9847154B5B6BDB6A3F
:101F9000EA6A9A42DDD30122174B1A60D9E7002D75
:101FA00001D0164B98470E4BDC6F002C0ED0144F0F
:101FB000114E012502E0013C002C04D0B847002856
:101FC000F9D03560F7E70022054BDA670A4B1B684A
:101FD0000024002BB5D00B4B98470134B1E7C04625
:101FE00098430020411100001843002059110000BF
:101FF0007B0D0000350D000018440020A91A0000D8
:10200000051E00002911000010B5041E0FD0094B59
:102010001B6F002B01D072B6FEE7074B98470021DB
:102020002000064B9847064B9847002801D1054BE6
:10203000984710BD98430020E91D00003D1B00009B
:10204000151F00002911000010B5214B1B6F002B3C
:102050001AD100221F4B1A601D4BDB6E9A00D2185A
:1020600092001D498A18D26C002A11D1002B09D088
:10207000013B9A00D21892008A18D26C002A07D12C
:10208000002BF5D172B6FEE70122124B1A6010BD8B
:10209000114A9900C81880001018046D646804651E
:1020A000C91889000200543294420AD09A00D2180A
:1020B000920009498A18126DD168054A5163D366A6
:1020C000E5E760680A0004498A181065EEE7C04633
:1020D00098430020184400201843002010B50C003D
:1020E000002801D172B6FEE7044B596B1831044B3E
:1020F000984701212000034B984710BD98430020CA
:102100004D0D00003D1B000070B50C0015000028AF
:102110000DD0084B596B1831074B9847002D01D053
:102120000124644229002000044B984770BD72B618
:10213000FEE7C04698430020350D00003D1B00001F
:1021400070B5C368DC68002C28D02500183528003D
:10215000164B9847164B1B6F002B21D1251D2800CD
:10216000124B9847E36A124AD26E934201D9104A41
:10217000D3669800C3189B000E484C30C018290045
:102180000D4B98470A4B5B6BE26ADB6A00209A4270
:1021900003D90122094B1A60013070BD72B6FEE707
:1021A000290004481430044B9847EBE77B0D0000EE
:1021B0009843002018430020350D000018440020EB
:1021C000024B9A6F02601B6B43607047984300207C
:1021D00070B506000D0000281BD000291BD0134B42
:1021E0009847134B1A6B71682B68581C1CD0104809
:1021F000806F3468844202D001248A4205D2521A88
:102200009A420AD300232B6001240A4B98472000EE
:1022100070BD72B6FEE772B6FEE79B1A2B60300007
:10222000054B98470024F0E70024EEE74111000039
:102230009843002059110000C12100000122014BE8
:102240001A60704718440020054B5B6E0120002B7C
:1022500004D0034B186F4342584140007047C046BA
:102260009843002070B5041E3DD0C16A1F4B5B6BC4
:10227000DB6A99422FD28369002B05DB1B4B5B6B1A
:10228000DA6A05239B1A83618B0059188900184B61
:102290004C335B1862699A4205D0144B5B6BDB6A66
:1022A000E36201201EE0251D2800124B98470F4BCA
:1022B0005A6BD26AE262DB6E9A4201D90B4BDA6644
:1022C0009000821892000A484C30801829000A4B6E
:1022D0009847012006E0054B5B6B406CDB6A984237
:1022E0008041404270BD0020FCE7C046984300207A
:1022F000184300207B0D0000350D000070B5041E52
:102300002DD0194B5B6B984201D072B6FEE7836CFF
:10231000002B01D172B6FEE7013B8364C26A416CB7
:102320008A421ED00020002B18D1251D28000F4BFB
:102330009847636CE3620522D21AA2610A4AD26E00
:10234000934201D9084AD3669800C3189B000848F5
:102350004C30C0182900074B9847012070BD002061
:10236000FCE70020FAE7C046984300207B0D000000
:1023700018430020350D000070B5041E0DD0836C8D
:10238000002B01D172B6FEE7406C884200D20800F3
:10239000E26A824201D0012B00D070BD154B5B6B0D
:1023A0009C4201D172B6FEE7E062A369002B02DB1A
:1023B0000523181AA06193009A1892000E4B4C3313
:1023C0009B1862699A42E8D1251D28000B4B98475B
:1023D000E36A084AD26E934201D9064AD36698004E
:1023E000C3189B0004484C30C0182900044B984780
:1023F000D3E7C04698430020184300207B0D00001F
:10240000350D0000054B5B6B002B04D0034B5A6B62
:10241000936C01339364014B586B704798430020D1
:1024200010B54160006191420BD8D21A0124836932
:102430009A4211D2011D094B1868094B9847002494
:102440000AE09A4202D20124994205D2011D034BAF
:102450005868034B98470024200010BD1C440020FE
:102460004D0D0000F8B5104B9847104B9B68002BA2
:1024700002D00F4B9847F8BD0C4C26000C363000AC
:102480000C4FB847250020352800B8476660256006
:1024900000220C210520084B9847A0600028E8D0B6
:1024A0000649074B9847E4E7411100001C4400200F
:1024B00059110000190D000059140000884F000048
:1024C000191A000010B582B00B4B98470B4B9B6854
:1024D000002B0ED0094B34330193022300930023C9
:1024E000502207490748084CA047002801D002B0F5
:1024F00010BD72B6FEE7C046652400001C440020F3
:10250000904F000029260000AD1B000030B585B0BB
:1025100004001D00002814D0134B9868002821D017
:10252000019102920394052915DC104B984702286B
:1025300009D00D4B98680023002201A90C4CA0473C
:102540000EE072B6FEE7084B98680023089A01A9CE
:10255000074CA04704E000232A0001A9054CA0472E
:1025600005B030BD0020FBE71C44002049220000DC
:10257000A51400005D160000F0B5D6464F4646464D
:10258000C0B582B08046234B98478246224B9B6B56
:10259000984217D30023424613601F4B52469A635A
:1025A000504602B01CBC90469946A246F0BD00239E
:1025B00000933A0000212000184CA047002804D1C5
:1025C00072B6FEE7144D164B99466B681A68002ADE
:1025D00017D0DB681F68DC68261D3000C847200064
:1025E000636A9847E369012BEFD1A369FB189F4207
:1025F000DDD263602461084B58683100094B98476D
:10260000E3E7054A116851601360012342461360F5
:10261000C3E7C046F91D00001C4400200D25000042
:102620007B0D00004D0D0000F0B589B0524F534BAB
:102630005B681A68002A0ED0DB681C68504B98470C
:1026400005A8504B98470500059B002B5FD1A04281
:1026500036D200220FE04A4B984705A8494B9847CD
:102660000500059B002B52D1444B1B681B685A4246
:102670005A41D2B20024611B404B9868424B9847A4
:10268000424B984700283FD03C4D414C002205A9C1
:10269000A868A0470028CAD0059B0393002BF5DB50
:1026A000079E7369002B01D0301DB84704A8354B35
:1026B0009847059B092BE9D89B00364AD3589F467B
:1026C000324B98472D4B5B68DB68DE68301D2A4B28
:1026D0009847F369012B03D0736A30009847D3E71A
:1026E000B369E11823002A0030002B4DA8470028C9
:1026F000F2D000230093220000213000274CA04795
:102700000028E9D172B6FEE7254B9847BCE71F4B7E
:102710009847B9E7069BB269944663441900069B43
:10272000020030001C4CA0470028AED03000736A75
:102730009847F369012BA8D1069BB1698C46634485
:102740001A000023009300213000144CA0470028F9
:102750009BD172B6FEE70699B161002906D04118F7
:102760000300020030000C4CA0478EE772B6FEE773
:1027700030000C4B984788E77B0D00001C4400207C
:10278000E91D000079250000491A0000151F00000E
:102790002D170000604F0000212400000D250000CF
:1027A00029110000D10C00001F4A136A04210B43B9
:1027B00013621E4B832252025A601D4A5A801D4BDF
:1027C00003394A2299540631013299542E315A5C08
:1027D0000F208243022002435A54585C0F220240C9
:1027E000202002435A54144B1A6833398A431A6022
:1027F000124A1A601A00D369002BFCD1104A0E4B02
:102800009A811A00D369002BFCD1C02292020A4B94
:102810005A601A00D369002BFCD1074A13680221C1
:102820000B4313607047C04600040040000C00409A
:102830001440000000440041000800420400314000
:1028400015FBFFFF154A40211160154B19604031FF
:10285000116019608021C90211601960114A136A60
:1028600008210B431362104A104B5A801A00537808
:10287000DB09FCD10E4A0F4B1168196080218902D7
:1028800059600221197350680B4A90621A680A4312
:102890001A601A00D3699B07FCD4704708440041B2
:1028A000184400410004004015400000000C0040A6
:1028B000984F0000000C004200440041084A137E7B
:1028C000DB07FCD5064B98621A00137E9B07FCD5EC
:1028D000034A137E5B07FCD5014B986AC0B2704770
:1028E000000C004210B50400FF200D4B9847012C4E
:1028F0000CD0002C03D0022C0DD0012004E080224B
:10290000D202084B1A600020C0B210BD8022054BD5
:102910001A600020F8E74022024B1A600020F3E71B
:10292000BD2800001444004101280CD0002803D029
:1029300002280DD0012004E08022D202074B1A6049
:102940000020C0B270478022044B1A600020F8E7D4
:102950004022024B1A600020F3E7C04618440041B1
:10296000F0B5C64600B58CB004000D0000F080F84C
:102970003A4B06001B780F005BB2984601330FD02C
:1029800022002B002000290002F03EF8002807D189
:10299000002200232000290000F02AFB002805D097
:1029A000300039000CB004BC9046F0BD2C4B0A90AE
:1029B000039343460494059506940795002B1AD17A
:1029C000E022284B120608920993200000220023DF
:1029D000290000F0F3FA002838D00223029302A85D
:1029E00000F048FA002817D00A9B0193002B18D159
:1029F000089E099FD4E700221B4B200008920993F0
:102A000029000022002300F0D9FA00280FD0022369
:102A100002934346022BE2D102F0E2F82223036044
:102A2000E2E702F0DDF80A9B01930360E0E701238F
:102A300002934346022B0BD102F0D2F8212303600C
:102A40000A4800F019FA08900991CDE70123029392
:102A500002A800F00FFA0028F2D1EDE70C000020E8
:102A6000A04F0000FFFFEFC70000F0FF4C4F000039
:102A7000F0B5D6464F464646C0B5DA4A88B00B0098
:102A8000914255DC4A005208024300D1EFE0002990
:102A900000DA79E1D44B002201F020FA3625D34C3C
:102AA0000B006D42A34247DC1A15D14C1B031B0BD4
:102AB0009846A4468024CF4B640343442340CE4C25
:102AC000624452195C4045461B1599462543CA4B42
:102AD00029009144002201F081FC434602331B038C
:102AE00006000F001B0B0022022B2FDC002300F03E
:102AF00065FA002800D1C1E04B46002B00D14CE123
:102B0000484601F0D5FFBD4ABD4B04000D0001F061
:102B1000E5F9BC4A06000F00BB4B2000290001F07C
:102B2000DDF902000B003000390000F093FA07E0F5
:102B3000AE4C0025A342B7DD02000B0000F08AFA7C
:102B400008B01CBC90469946A246F0BD8023DB0528
:102B500000F080FA02000B003000390000F08AFD1E
:102B6000040048460D0001F0A3FF220002900391EB
:102B70002B00200029000494059501F0AFF9040012
:102B80000D00A24B020043449A460B0000940195AD
:102B900001F0A4F904000D009D4A9E4B01F09EF93E
:102BA0009D4A9E4B00F056FA22002B0001F096F948
:102BB0009B4A9C4B00F04EFA22002B0001F08EF94C
:102BC000994A9A4B00F046FA009A019B01F086F967
:102BD000974A00900191974B2000290001F07EF95F
:102BE000954A964B00F036FA22002B0001F076F958
:102BF000934A944B00F02EFA22002B0001F06EF95C
:102C00000B0002000098019900F024FA0D004146E3
:102C10008D4B04005B1A51460B43002B54DD002200
:102C20008A4B3000390001F059F932003B0001F0C5
:102C300055F94B460A00010000910192002B72D118
:102C4000130029000200200000F004FA049A059BFA
:102C500001F044F902000B000098019901F0BEFB5D
:102C600002000B003000390001F0B8FB68E70022D9
:102C700000230020764900F0FDFC61E7754A764BA1
:102C80003000390001F02AF902000B0000206F49E2
:102C900001F0A4FB320004000D003B0030003900BD
:102CA00001F01CF90B0002002900200001F016F9C8
:102CB0004B4604000D00002B72D102000B003000C7
:102CC000390001F08BFB3BE74B46002B00D1C5E000
:102CD00002980399494A4A4B01F000F922000090FA
:102CE00001912B003000390001F078FB049A059B1C
:102CF00001F0F4F8434A04000D0002980399424B96
:102D000001F0ECF802000B002000290001F066FB46
:102D100032003B0001F062FB02000B0000980199B9
:102D200001F05CFB0CE7354A354B0298039901F042
:102D3000D5F8009A019B069007912000290000F029
:102D400089F9049A059B01F0C9F82E4A04000D0088
:102D5000029803992C4B01F0C1F802000B002000EF
:102D6000290000F077F902000B000098019901F0AA
:102D700035FB32003B0001F031FB02000B000698EE
:102D8000079901F02BFBDBE602000B0001F026FBAC
:102D90000022002300F06EFCD2E600200021CFE6E6
:102DA000484601F085FE154A154B0090019101F04F
:102DB00095F8144A0290039100980199124B01F082
:102DC0008DF802000B002000290001F007FB320003
:102DD0003B0001F003FB02000B000298039901F095
:102DE000FDFAADE6FFFF0F0000005043FFFFEF7F4D
:102DF00001FCFFFF645F09000000F03F0000E0FEFF
:102E0000422EE63F763C7935EF39EA3D86EBF9FF15
:102E100044523EDF12F1C23FDE03CB966446C73F09
:102E2000599322942449D23F935555555555E53F22
:102E30009FC678D0099AC33FAF788E1DC571CC3F2D
:102E400004FA97999999D93F51B806000000E03FDC
:102E5000000050C3555555555555D53F22002B0000
:102E60003000390001F0BAFA049A059B01F036F8F7
:102E7000F6E6C04600207047002001497047C04672
:102E80000000F87F002243088B4274D303098B4271
:102E90005FD3030A8B4244D3030B8B4228D3030C2A
:102EA0008B420DD3FF22090212BA030C8B4202D3CC
:102EB0001212090265D0030B8B4219D300E0090AF4
:102EC000C30B8B4201D3CB03C01A5241830B8B42FD
:102ED00001D38B03C01A5241430B8B4201D34B03E6
:102EE000C01A5241030B8B4201D30B03C01A52414B
:102EF000C30A8B4201D3CB02C01A5241830A8B42D0
:102F000001D38B02C01A5241430A8B4201D34B02B8
:102F1000C01A5241030A8B4201D30B02C01A52411C
:102F2000CDD2C3098B4201D3CB01C01A52418309D0
:102F30008B4201D38B01C01A524143098B4201D30A
:102F40004B01C01A524103098B4201D30B01C01A35
:102F50005241C3088B4201D3CB00C01A52418308AF
:102F60008B4201D38B00C01A524143088B4201D3DC
:102F70004B00C01A5241411A00D20146524110463C
:102F80007047FFE701B5002000F006F802BDC0461B
:102F90000029F7D076E770477047C0468446101C7A
:102FA00062468C46191C634600E0C0461FB500F01F
:102FB00033FF002801D40021C8421FBD10B500F026
:102FC0008DFE4042013010BD10B500F025FF0028F5
:102FD00001DB002010BD012010BDC04610B500F07F
:102FE0001BFF002801DD002010BD012010BDC046E0
:102FF00010B500F0ADFE002801DC002010BD01205E
:1030000010BDC04610B500F0A3FE002801DA002074
:1030100010BD012010BDC04670B500220C4B04004D
:103020000D00FFF7EFFF002804D12000290001F078
:103030000BFD70BD064B00222000290001F0CEF9E7
:1030400001F002FD80231B069C466044F1E7C04668
:103050000000E041F8B54546DE4657464E460C03B3
:10306000E0B54E00C90F88460D00610A440F0C43BD
:10307000C70019035800DB0F9B464B0A510F0B4347
:10308000760D400D1900D200D84500D1AEE0351ABA
:10309000002D00DCF6E000280FD1134300D1DBE067
:1030A0006B1E002B00D037E1BA1A9742BF41641A59
:1030B0007F42E41B0126170024E0C64B9E424DD000
:1030C00080231B041943382D00DD07E11F2D00DD8F
:1030D00038E12020431B9A460B0050468340994616
:1030E00013004846EB401843030050468240501EF0
:1030F0008241E9401A43BA1A611A9742A441170063
:1031000064420C1B230262D56402650A002D00D1C3
:10311000DFE0280001F046FD0300083B1F2B00DD27
:10312000D2E020223C00D21A9D40D4409F4025434B
:103130009E4200DDC4E09E1B731C1F2B00DDF1E0EE
:10314000202238002900D21AD840914097402C0004
:103150000143781E8741DC4000260F437B0709D0DE
:103160000F233B40042B05D03B1DBB42BF417F4298
:10317000E4191F0023022CD5964B01369E4200D144
:103180009AE04546944BFF081C40600776056402B0
:103190000743240B760D00212403230B0C0D8F4ACB
:1031A00024051C431440330523435B00ED075B08F3
:1031B0002B43380019003CBC90469946A246AB46CA
:1031C000F8BD6446044300D111E2040067467B0762
:1031D000C6D145466007FF080743E4087D4B9E4281
:1031E00030D024037605240B760DD4E7331A9A46A3
:1031F000002B78DD002831D076488642AED0802082
:10320000000401435346382B00DCE9E00A43511E19
:103210008A410021D219BA42BF4109197C421700E4
:103220000C192302D3D56B4B01369E4200D13AE1F3
:103230000120694B1C407B0807401F43E007074300
:1032400064088BE723003B4300D1CBE180221203CB
:1032500014432403240B9EE72E007FE7080010434D
:1032600000D1B4E0581E002800D0DEE0BA18BA42FF
:103270009B4164185B42E418170001262302A6D57F
:103280000226D5E7002D6ED1701C4005400D0128A7
:1032900000DCF9E0B81A844687428041E51A4042D2
:1032A0002D1A280200D489E0D71BBA4292411C1B78
:1032B0005242A51AD84629E74546002400276AE766
:1032C000454CF61A2C4049E73D0028388540002738
:1032D0002EE7380001F066FC20301DE70A43511E3E
:1032E0008A41002107E7002B00D0F3E0701C430562
:1032F0005B0D012B00DCADE0364B984200D1D1E0F4
:10330000BA18BA42BF4164187F42E419E70752086D
:1033100017436408060021E72E48854200D193E058
:103320001D00D0E629001F3EF140202B00D18DE08A
:103330004022D31A9D402F437D1EAF4100240F43EE
:10334000002644E72B000800203BD8400300202D36
:1033500000D17DE04020451BA9400A43511E8A410F
:1033600000211A43C7E6002E50D01A4EB04257D063
:1033700080266B429946360434434B46382B00DD99
:10338000D6E01F2B00DD35E12026F51A2600AE40E1
:10339000B2463E00DE40AC46350056462E436546FA
:1033A000AF407D1EAF41DC403743D71BBA4292414C
:1033B0000C1B5242A41A0600D846A3E66446674690
:1033C0002C4300D0A2E600250026002706E71E00B9
:1033D000C4E6C046FF070000FFFF7FFFFFFF0F802E
:1033E0001F2B63DC2020C31A080098409C468346AC
:1033F00053461000D84003005846184363469A408D
:10340000531E9A4153460243D94003E726003E43E8
:1034100006D0EB439946002BC7D0944EB042ACD1B6
:103420000C0017000600D84698E6904B9A450BD042
:103430008246E7E6002800D09EE01800104300D145
:10344000E9E01C001700D846884E87E6002572E7A1
:10345000002182E723003B43002E00D0ABE0002B8D
:1034600000D1E7E00B00134300D177E6BA18BA4267
:10347000BF4164187F42E419230200D4F2E07C4B80
:1034800017001C40060069E620003843002ED1D109
:1034900000285BD11C00144300D1A8E01C001700D9
:1034A000D8465BE606000024002797E650460B004E
:1034B0002038C34099465346202B00D195E0402345
:1034C00050461B1A99400A43511E8A414B4600211F
:1034D0001A439FE6002E30D126003E4367D0DB43DF
:1034E0009A46002B1CD0614EB04260D05346382B18
:1034F00000DD96E01F2B00DD9FE02026F31A26005A
:103500009E409C46B34653463E00DE4033005E4636
:103510001E4363469F407B1E9F415346DC4037431A
:10352000BF189742924164185242A418060078E6E8
:1035300027437C1EA741002437E74C4EB04236D0CB
:1035400080265B4236049A463443CFE71800104386
:1035500000D103E6B81A84466745AD41E01A6D42D2
:10356000401B050200D42CE6D71BBA4292411C1B1B
:103570005242A41AD846F1E51800104300D163E77F
:10358000F808670707438020E4080003044208D0D6
:10359000DD08054205D1D208590711430F002C0060
:1035A000D8467B0FE4001C43FF00304ED6E50C00EC
:1035B00017000600D2E5002B38D00B00134300D1D2
:1035C00042E7F808670707438020E4080003044245
:1035D000E7D0CB080342E4D1D208490711430F00DA
:1035E0001C00DEE700270024D5E500216BE700255D
:1035F0000027F3E54E462500203EF5404B462E00C1
:10360000202B2DD04025ED1AAC4027437C1EA7412E
:1036100000243743C9E6802400252403134E0027E5
:10362000DCE527437C1EA741002479E70C00170046
:103630000E4E93E50C00170090E556462300203E01
:10364000F34099465346202B0ED0402356469B1BF1
:103650009C4027437C1EA7414B4600241F435FE745
:103660000024D2E71700B2E50024F2E7FF070000CC
:10367000FFFF7FFFF0B557464546DE464E46E0B5B4
:103680004C000E0387B0834692461D008046360BE1
:10369000640DCF0F002C4FD06F4B9C4235D0802350
:1036A000420F1B04F600134333439946C300984668
:1036B0006A4B00269C460023644403932B031B0B98
:1036C0009B466B00ED0F50465B0D01955ED0624A44
:1036D000934253D05A46D1008022400F1204024335
:1036E0000A4393465246D1005C4A94460022634402
:1036F0003800684084460290E41A16430F2E00D921
:10370000B4E0574BB6009B599F460300334399469C
:103710006CD100239846023308260393CEE7CB46AC
:103720004146039A0197022A65D1019B4A4C9C4667
:103730000023002298466BE00300334399464ED0A5
:10374000002E00D1BCE1300001F02CFA03000B3B4D
:103750001C2B00DDACE11D22D31A5A460100DA40D1
:1037600008398E401300334399465B468B40984698
:1037700000233C4C0026241A03939FE751465A46E7
:10378000114329D1002293460232B1E75946014341
:103790001ED05B46002B00D19EE1584601F002FA94
:1037A00003000B3B1C2B00DD8FE102005946083A59
:1037B00091408B461D21CB1A5146D9400B005946EA
:1037C0000B4351469B469140264B00221B1A8FE724
:1037D000002301229B468BE75146032288E7002302
:1037E0009846013304260024039367E70323B14678
:1037F00003930C2662E7032A00D15CE2019B012AB5
:1038000000D0E4E113409C460023002400229846A7
:1038100000211203130B0A0D12051A432305124C43
:1038200040462240134362465B00D2075B081343C5
:10383000190007B03CBC90469946A246AB46F0BD85
:10384000002380229C4612039846034CE0E70023A5
:10385000014C00229846DBE7FF07000001FCFFFF58
:10386000A44F00000DFCFFFFFFFF0F80D94500D9DA
:1038700039E100D134E1002346464D469A46013CE9
:103880005B460A0E1B021A430B02170C0393130428
:103890001B0C3900280090460193FFF7F3FA020051
:1038A000019B83465A43280039009146FFF770FB7D
:1038B000350C09040D43A9450DD95B464544013B30
:1038C000A84500D93AE1A94500D837E102235B4277
:1038D0009C464544E3444B46EB1A390018000493D8
:1038E000FFF7D0FA019B050043433900049899463D
:1038F000FFF74EFB330409041B0C0B43994509D910
:1039000043446A1E984500D91AE1994500D817E149
:10391000023D43444A469B1A5A4612042A430399DD
:103920009346100C0A0C914609045A46090C4E465F
:103930000D001204120C454305915143724370432C
:1039400052190E0CB218954203D980256D02AC466F
:103950006044150C09041204090C281852188342FB
:1039600000D2CEE000D1C8E01D1A53469E1AB245DF
:1039700092415242AB1A9A46984500D117E139005C
:103980001800FFF77FFA019B0500434339005046BA
:103990000493FFF7FDFA04980B04310C1943884295
:1039A00009D941446B1E884500D907E1884200D8F7
:1039B00004E1023D4144049BCB1A180039000493F2
:1039C000FFF760FA019B8246434339000498019354
:1039D000FFF7DEFA01980B043104090C1943884201
:1039E0000DD953464144013B884500D9E8E088425F
:1039F00000D8E5E002235B429C464144E244019B3F
:103A00002D04CE1A51462943059D4F462A000B042A
:103A1000080C1B0C5A4345437B4378435B19170C36
:103A2000FB189D4203D980256D02AC4660441D0CF5
:103A300012041B04120C28189B18864200D293E033
:103A400000D18EE001231943A04BE318002B00DCCA
:103A500099E04A0700D09EE05A46D20106D55A4660
:103A60009B4B1A4080239346DB00E318994A93420C
:103A700068DD0123029A984C1A4000239446984628
:103A80000022C5E680224B46120313420AD05B4651
:103A9000134206D11A431203120BAC4688468E4CD1
:103AA000B6E64B461A431203120BBC468A4CAFE6ED
:103AB00003005A46283B9A4000239146984657E611
:103AC000584601F06FF8203040E603005246283B8C
:103AD0009A400021934677E601F064F820305FE6D3
:103AE000884500D2C7E64B46DE075D0843465B08C3
:103AF0001E434346DB079A46C2E60025924500D3A3
:103B000033E7039E5946B446E244B245AD416D42A7
:103B10004544EB180139984507D2984200D97FE017
:103B200000D1BCE01D1A8B461FE79845FAD1039DD2
:103B30005545F2D943468B461D1A16E79B46CAE601
:103B40001500E7E65A46C90852070A435B05904646
:103B50005C0D5A460123029952021940120B8C4601
:103B600056E6002B00D16FE746444A1EB04529D9DE
:103B70001100864200D065E7039A934200D061E7C6
:103B800062E7012149420120C21A382A21DD029B45
:103B900003409C4638E60F220A40042A00D15BE726
:103BA0000A00111D914292415242934454E7474BFF
:103BB000E318002BE5DD01225242F2E71D00FAE690
:103BC0009A461CE7B04239D86ED011003AE702930A
:103BD0003AE71F2A3CDC20239B1A0C0058469940E8
:103BE00098404B1E99415B46D440D3402043084344
:103BF0001A00430709D00F230340042B05D001000E
:103C0000081D88429B415B42D21813023AD501231A
:103C1000029A01241A400023944698460022F7E5B0
:103C2000022149428C46039DE344AC46E244AA4546
:103C3000AD416D424544ED182D1A96E68A1E039952
:103C40004D008D42894149424144761803958FE7E2
:103C50001F204042C31A5846D8400300202A28D0CB
:103C600040205D46821A954029434A1E91411943DE
:103C7000072300220B4009D00F2300220B4008002D
:103C8000042BBDD1010053075202120BC90819437E
:103C9000012388460299002419408C46B8E5524514
:103CA000BED88B46002560E6039D9D42C6D3110019
:103CB00062E70025D8E780225B4612031A43019B86
:103CC0001203120B9C468846034CA1E5FF0300003B
:103CD000FFFFFFFEFE070000FF070000F0B54F46A4
:103CE0004646D6465C00C0B51F03DB0F9A46174B0D
:103CF0000E034D0084468046360B6D0DC90F91466C
:103D00003F0B640D01209D4208D09C4201D0A5428A
:103D10000BD01CBC90469946A246F0BD6346334387
:103D2000F7D1AC42F5D13A43F3D10120BE42F0D1F4
:103D3000C845EED1514507D0002DEAD163461E4358
:103D40003000461EB041E4E70020E2E7FF07000034
:103D5000F0B54546DE4657464E46E0B51F033D0BDF
:103D60002C4F0E034C00AB465D008446360B640DB1
:103D7000C90F90466D0DDB0FBC422AD0254FBD42C6
:103D80002DD0002C0FD13043070081467842784176
:103D9000C0B2002D17D15F463A4314D14B460020E4
:103DA000002B0AD006E0002D02D15846024301D074
:103DB000994218D04842012108433CBC904699469C
:103DC000A246AB46F0BD0028F2D00120013B1843CB
:103DD000F3E737000743D1D002204042EDE75F46CA
:103DE0001743CED0F8E7AC42E4DC03DA481E0121E9
:103DF0000843E2E75E45DDD806D000205E45DCD210
:103E00000123481E1843D8E7C445D3D80020C44531
:103E1000F6D3D2E7FF070000F0B54E464546DE4632
:103E200057465C00E0B51F03DB0F99462A4B0E0393
:103E30004D00C90F8446360B6D0D8B4690463F0BE7
:103E4000640D9D4220D0244B9C4222D0002D12D1E3
:103E5000304343424341DBB2002C1FD0002B0CD037
:103E60004B460120013B034318003CBC9046994659
:103E7000A246AB46F0BD002C16D0CB4517D05B4612
:103E8000594201230B43EFE7310002230143EBD1F9
:103E9000D9E7390002231143E6D1D7E73A43DDD110
:103EA00000230028E0D0EAE73A43E6D1E7E7A5425D
:103EB000E5DC05DBBE42E2D807D00023BE42D3D208
:103EC0005946012301390B43CEE7C445D7D8002317
:103ED000C445F5D3C8E7C046FF070000F0B5574614
:103EE0004546DE464E46E0B50C0398464E00230B91
:103EF00087B0070092469B46760DCD0F002E6BD003
:103F00006D4B9E4235D080245B46420F2404DB007B
:103F100014431C43C3009946684BA3469C460023A8
:103F200000276644029343461C035A00DB0F5046A9
:103F3000240B520D984600D176E05F4B9A426DD02B
:103F40008023410F1B040B435C49E4008C461C4357
:103F5000C300002062444146B6186940721C0191BA
:103F6000944607430F2F00D9B0E0554ABF00D259FD
:103F700097465B460343994600D087E000239B4663
:103F8000023308270293CEE742460192022867D007
:103F9000032800D10EE2012800D062E100230024B2
:103FA0000022994601990140CDB2002112030B0D68
:103FB000120B1B051343434A240513401C436400A2
:103FC000ED0764082C434846210007B03CBC9046EE
:103FD0009946A246AB46F0BD034399464FD05B4697
:103FE000002B00D189E1584600F0DCFD03000B3BBB
:103FF0001C2B00DD7AE11D22D31A3A0001005C4639
:10400000DA4008398C4013008F4023439B46B94661
:1040100000232D4E0027361A029384E7534623438C
:104020002AD10024022096E75346234320D0002CB7
:1040300000D157E1200000F0B5FD03000B3B1C2B25
:1040400000DD49E11D21CB1A51460200D9405346FB
:10405000083A944093400C431B4A121A00207AE716
:104060000125019B144C1D400023002299469CE72A
:104070000024002201206EE7534603206BE7002353
:104080009B4601330427002602934CE70323814615
:104090000C27029347E7802200230025120399464C
:1040A000054C82E75C464B4602986FE75C464B4600
:1040B000019502986AE7C046FF07000001FCFFFF78
:1040C000E44F0000FFFF0F800DFCFFFF4A4649460A
:1040D000170C1A0C1B041B0C08041900000C41439C
:1040E0001500884619007D437943039589462900C8
:1040F000150045434D44029545462D0CAA46029DA8
:104100005544A94506D98A46802149028946CA44B0
:1041100051460391290C0491414609042D04090CD0
:1041200088462900250C24044144240C05912100D3
:1041300041438846210079438A46684341465044BA
:104140008146080C48446F43824503D980214902C7
:1041500089464F44010C8946390049440291414641
:104160000F0404993F0C88460004C019804441465E
:10417000049159460F0C0904090C884659438A4694
:1041800039005143894641464A435146090C8B4602
:104190007B43D2185A44934203D980235B029B4647
:1041A000D94451460904090C8A46414661437C437F
:1041B000130C12044B445244A1468A463C0041462B
:1041C0006C434D4351464D440F0C7D19A94503D90D
:1041D0008021490288464444049F0399B8464144DB
:1041E0008B468345804141428846514608042F044E
:1041F000000C3F1858460299101889469042924187
:104200004F44BA46524299469346C244D144CB44A5
:104210008F42BF41C245894199459B419345924197
:104220007F4249422D0C52420F435B4213437F1998
:10423000FF185B463C19DB0D059A64021C434302E0
:1042400013435D1EAB415A46C00D03435202134354
:10425000E20156D501205A0803401343E2071343F5
:1042600064085A48604400284DDD5A0709D00F22DF
:104270001A40042A05D01A1D9A429B415B42E41859
:104280001300E20104D58020514AC000144060446C
:10429000504A904200DDE3E60125DB0862071A433D
:1042A0006402019B9146220B4405640D1D407CE68F
:1042B000802259461203114208D0144206D12243EB
:1042C0001203120B45469946434C6EE65B461A4371
:1042D0001203120B404C68E603005446283B9C40F6
:1042E0000023B9E600F05EFC2030A6E60300283B80
:1042F0009F400023BB4699468AE600F053FC2030DD
:1043000074E6B446ADE701252A1A382A06DD019B7A
:1043100000241D4000230022994646E61F2A21DC86
:1043200020252000AD1A1E00AB40A840D6405D1EDF
:10433000AB4130431843D440430709D00F23034017
:10434000042B05D00300181D98429B415B42E418E2
:10435000230221D50125019B01241D4000230022B9
:10436000994622E61F2521006D42281AC140080007
:10437000202A1DD05F35AA1A944023435C1EA34116
:10438000072503431D400022002D09D00F220024E1
:104390001A401800042AD6D1030065076402220BD4
:1043A000DB082B4301259946019B00241D40FCE5B9
:1043B0000024E2E78022012512032243019912031F
:1043C000120B0D409946044CEFE5C046FF03000078
:1043D000FFFFFFFEFE070000FF070000F0B54646A6
:1043E000D6464F460C03C0B5CD0F4E00610A440FB0
:1043F0000C43C1005800400D84468A460F00190343
:10440000500F490A0143C648760DA846DB0FD2007B
:10441000844500D1D8E001204340AB4200D1A6E062
:104420006046351A002D00DC05E1002810D10B0094
:10443000134300D1D7E06B1E002B00D04BE1534655
:104440009F1ABA458041641A4042241A01261EE090
:10445000B34B9E4248D080231B041943382D00DD06
:1044600019E11F2D00DD4CE120230F005B1B100024
:104470009A409F40E840531E9A41E9400743174342
:104480005346DF1B611ABA45A44164420C1B230248
:1044900000D4C5E06402650A002D00D1F6E02800D2
:1044A00000F080FB0300083B1F2B00DDE9E0202229
:1044B0003C00D21A9D40D4409F4025439E4200DDDF
:1044C000DBE09E1B731C1F2B00DD0AE1202238005D
:1044D000D21A290097402C009140D8407A1E97416B
:1044E000DC40002601430F437B0709D00F233B40EC
:1044F000042B05D03B1DBB42BF417F42E4191F0086
:10450000230225D5864B01369E4200D1AFE0854B74
:1045100001251C4043466207FF08640276051743E5
:10452000240B760D1D4000212403230B0C0D7E4A25
:1045300024051C431440330523435B00ED075B084F
:104540002B43380019001CBC90469946A246F0BD8A
:10455000012543466207FF081743E4081D40704BDE
:104560009E4236D024037605240B760DDBE76346A6
:10457000F31A002B00DC94E06046002835D0684830
:104580008642B1D080273F043943382B00DCFDE060
:104590000A43170000217A1E97415744574580412E
:1045A000091944420C1923023AD55D4B01369E424B
:1045B00000D14BE101225B4B1C407B0817401F439D
:1045C000E207174364088FE70800104300D024E790
:1045D00021E723003B4300D1B9E1802212031443B9
:1045E0002403240B9FE72E007EE70800104300D130
:1045F000CAE0581E8446002800D0E7E052445245E5
:10460000804164184042241817000126230207D570
:104610000226CFE764462C4300D1B3E12C00674665
:104620007B0700D062E76307FF081F43012543466D
:10463000E4081D4093E7002D78D1751C6D056D0DC4
:10464000012D00DCF2E05046801A8245BF41651A18
:104650007F42ED1B8446280200D48CE05046171A96
:10466000BA4292410C1B5542651B984614E701253E
:10467000434600241D40002755E72A4CF61A2C40DB
:1046800032E73D0028388540002717E7380000F062
:1046900089FA203006E70A43170000217A1E974165
:1046A000EEE6002B00D0E5E0731C9C465B055B0D3D
:1046B000012B00DC9FE01A4B9C4500D1C5E0524421
:1046C00052458041641840422418E70752081743B6
:1046D0006408664608E71248854200D185E01D005F
:1046E000BCE629001F3EF140202B00D17FE0402294
:1046F000D31A9D402F437D1EAF4100240F43002657
:104700008EE72B000F00203BDF40202D71D040238F
:104710005D1BA9400A43511E8A4100211743AFE6A1
:10472000FF070000FFFF7FFFFFFF0F80002E3ED03E
:10473000B34EB44545D0802636046D423443382DFF
:1047400000DDA8E01F2D00DD1FE1202627005046D8
:10475000761BB740E84007435046B040461EB04184
:10476000EC403843171ABA4292410C1B5242A41A29
:10477000664698468BE6644667462C4300D08BE637
:10478000002500260027EAE61E00ADE61F2B60DCB0
:104790002027F81A0F00844687401000D8400743AE
:1047A00060468240501E8241D9401743F5E62600FC
:1047B0005046064305D0ED43002DD3D0904EB4456E
:1047C000BDD10C001700664698468DE68C488342A2
:1047D0000BD06346D9E6002D00D096E008001043C8
:1047E00000D1E2E00C0017009846854E7CE60025DB
:1047F00080E700218EE7230050460343002E00D0BF
:10480000A8E0002B00D1DEE00B00134300D16BE6E3
:104810005244524580416418404224181700230234
:1048200000D4FDE6774B66461C405DE62500504609
:104830000543002ECFD1002D4FD10C00144300D1E1
:10484000A0E00C00170098464EE6664600240027BC
:1048500085E61F000800203FF8400700202B00D10C
:104860008EE04020C31A99400A43511E8A4100211C
:10487000174392E6002E14D126005046064362D01C
:10488000DB43002B5CD18718974292416418524257
:10489000A418664687E650462043441EA0410024E3
:1048A00060E7574EB4454ED0802636045B42344311
:1048B000382B00DD7FE01F2B00DD8BE0202627005A
:1048C0005046F61AB740D84007435046B040461EFF
:1048D000B0410743DC40BF18D6E70D00154300D1B7
:1048E00002E65046801A8245BF41651A7F42ED1BA1
:1048F0008446280200D48DE65046171ABA429241E7
:104900000C1B5242A41A9846EEE50D00154300D147
:104910006BE750466707C00807438020E4080003A0
:10492000044207D0CD08054204D12C009846D70890
:1049300049070F437B0FE4001C43FF00304ED3E5D3
:104940002F4EB445B4D10C0017006646CCE50027C5
:104950000024E8E5002B39D00B00134300D144E7D5
:10496000C008670707438020E40800030442E1D041
:10497000CB080342DED1D70849070F431C00D9E713
:10498000002171E700250027E9E52E002700203EE1
:10499000F740202D2FD04026751BAC4050462043B9
:1049A000441EA04100243843DCE680240025240373
:1049B000134E0027D3E5504620430700781E874159
:1049C0000024BF1860E70C0017008DE50C001700ED
:1049D0000B4E89E51E002700203EF740202B0CD00F
:1049E0004026F31A9C4050462043441EA0410743F2
:1049F0000024BF1848E70024D0E70024F3E7C046AE
:104A0000FF070000FFFF7FFF70B50E4E0D031C0374
:104A100049005B002D0B490D240B5B0DB14204D006
:104A2000084900208B4208D070BD05430120002DAD
:104A3000FAD1044900208B42F6D114432000441ED1
:104A4000A041F1E7FF07000030B5134D0A034B000A
:104A5000120B5B0DC90F0024AB4210DD0F4CA342BB
:104A60000FDC80240E4D64032243ED1A1F2D0BDD55
:104A70000C48C31ADA405442002900D11400200027
:104A800030BD094BCC18FAE7084CE840A446634413
:104A90009A400243EFE7C046FE0300001D040000F9
:104AA0003304000013040000FFFFFF7FEDFBFFFF56
:104AB00070B5002830D0C317C4185C40C50F200063
:104AC00000F070F8174B184A1B1AD21A1F2A18DD6B
:104AD000164AD21A9440002224035B05240B5B0D76
:104AE0000021100024030A0D240B12052243104C50
:104AF0001B05224013435B00ED075B082B431900A5
:104B000070BD210091400A000B21081AC4405B05CA
:104B10002403240B5B0DE3E700250023002400227F
:104B2000DEE7C0461E04000033040000130400004A
:104B3000FFFF0F8010B5041E28D000F033F8154B8E
:104B4000154A1B1AD21A1F2A15DD144AD21A94408C
:104B5000002224035B05240B5B0D002110002403BD
:104B60000A0D240B120522430D4C1B052240134352
:104B70005B00590810BD210091400A000B21081A62
:104B8000C4405B052403240B5B0DE6E700230024EF
:104B90000022E2E71E0400003304000013040000BA
:104BA000FFFF0F801C2101231B04984201D3000C3E
:104BB00010391B0A984201D3000A08391B09984290
:104BC00001D30009043902A2105C40187047C046A6
:104BD00004030202010101010000000000000000C6
:104BE000014B18687047C0461000002070B50D4E8C
:104BF0000D4D0024AD1BAD1005D0A300F3580134BA
:104C00009847A542F9D100F00FFA084E084D00244C
:104C1000AD1BAD1005D0A300F35801349847A54251
:104C2000F9D170BD34500000345000003450000001
:104C30003C500000F0B505000F2A2FD90B000343AC
:104C40009B0734D116000C000300103E35090135D6
:104C50002D01451927681F6067685F60A7689F601E
:104C6000E7681034DF6010339D42F3D10F239E4379
:104C70001036851989191340032B1AD91E1F0023DA
:104C8000B4080134A400CF58EF500433A342FAD142
:104C90000324A643331D2240C918ED18002A05D06D
:104CA0000023CC5CEC5401339342FAD1F0BD0500F3
:104CB000F6E71A00F2E7C046F0B5830743D0541E6A
:104CC000002A3FD0CEB20200032502E01A00013CC8
:104CD00038D3531C16702B42F8D1032C2AD9FF224B
:104CE0000A40150215432A0415430F2C14D9270036
:104CF0001A00103F3E09013636019E1915605560B5
:104D00009560D56010329642F8D10F229743103744
:104D1000DB191440032C0DD91A00271FBE080136D9
:104D2000B6009E1920C2B242FCD103229743043739
:104D3000DB191440002C05D0C9B21C1919700133BD
:104D40009C42FBD1F0BD14000300C6E7034B10B535
:104D5000002B02D0024800F005F810BD0000000052
:104D6000754D000010B5010000230022002000F066
:104D70001FF810BD70B5094B094CE41AA41009D0F6
:104D8000084AA518AD00ED182B68013C9847043D72
:104D9000002CF9D100F052F970BDC0464850000017
:104DA0004C500000FFFFFF3F7047C0467047C046B1
:104DB000F0B54E464546DE465746E0B5364D83B023
:104DC0000600286898460F009146FFF7EDFF334B29
:104DD0001C68A4235B00E058002852D043681F2BB6
:104DE00013DC5A1C0192002E28D1019A02339B0039
:104DF00042601F502868FFF7D9FF002003B03CBC79
:104E000090469946A246AB46F0BD254B002B3DD0BF
:104E1000C820400000E000BF002837D0A4220023B3
:104E20005200A15843600160A050403283500432C8
:104E30008350013301930023002ED6D09A0092466E
:104E400082444A46882154466250C4225200914608
:104E500081444A468739994012688B460A439446F2
:104E60004A4661461160842241465200A150022EFA
:104E7000BBD102005C468D32FF3211680C431460D6
:104E8000B3E720004D30FF30E050A7E72868FFF778
:104E90008DFF01204042B1E7400400202450000073
:104EA0000000000049443A20256420092044617430
:104EB000613A2025640A000044656C61793A200952
:104EC000202564206D730A00726563696576654309
:104ED000414E4D65737361676500000073656E64D4
:104EE000426565705369676E616C0000CE07000013
:104EF000B2070000D20700004A070000DA070000EE
:104F0000520700005A070000620700006A0700000D
:104F1000720700007A070000820700008A0700007D
:104F2000920700009A070000A2070000AA070000ED
:104F3000DE0A0000FC0A0000080B0000140B000051
:104F4000200B00002C0B000049444C4500000000E1
:104F50000925630925750925750925750D0A0000C0
:104F60001427000014270000142700008C260000DE
:104F700056270000702700001427000014270000A7
:104F80008C26000056270000546D7251000000006E
:104F9000546D7220537663000C0030000B0001D278
:104FA0006C6F67006C3800004E3800000838000055
:104FB000263700000838000040380000083800009C
:104FC000263700004E3800004E3800004038000000
:104FD000263700001E3700001E3700001E37000075
:104FE000843A0000CC4000008C3F00008C3F000061
:104FF000883F0000A4400000A4400000964000004C
:10500000883F0000A440000096400000A44000003B
:10501000883F0000AC400000AC400000AC40000005
:10502000B042000018000020F8B5C046F8BC08BC2B
:105030009E4670474D4D0000DD000000F8B5C046AB
:0C504000F8BC08BC9E467047B50000009C
:10504C0040420F00783E0000AAAAAAAA0100000064
:10505C0018000020000000000000000004030020E5
:10506C006C030020D40300200000000000000000AE
:10507C000000000000000000000000000000000024
:10508C000000000000000000000000000000000014
:10509C000000000000000000000000000000000004
:1050AC0000000000000000000000000000000000F4
:1050BC0000000000000000000000000000000000E4
:1050CC0000000000000000000000000000000000D4
:1050DC0000000000000000000000000000000000C4
:1050EC0000000000000000000000000000000000B4
:1050FC0000000000000000000000000000000000A4
:10510C0001000000000000000E33CDAB34126DE640
:10511C00ECDE05000B0000000000000000000000A9
:10512C000000000000000000000000000000000073
:10513C000000000000000000000000000000000063
:10514C000000000000000000000000000000000053
:10515C000000000000000000000000000000000043
:04548C00C4440020F4
:00000001FF
